{"contracts/TallyVerifier.sol":{"TallyVerifierOnChain":{"abi":[{"anonymous":false,"inputs":[{"indexed":true,"internalType":"address","name":"sender","type":"address"},{"indexed":false,"internalType":"bool","name":"isValid","type":"bool"},{"indexed":false,"internalType":"bytes32","name":"proofHash","type":"bytes32"}],"name":"ProofVerified","type":"event"},{"inputs":[{"internalType":"uint256[2]","name":"a","type":"uint256[2]"},{"internalType":"uint256[2][2]","name":"b","type":"uint256[2][2]"},{"internalType":"uint256[2]","name":"c","type":"uint256[2]"},{"internalType":"uint256[1]","name":"inputSignals","type":"uint256[1]"}],"name":"submitTallyProof","outputs":[{"internalType":"bool","name":"","type":"bool"}],"stateMutability":"nonpayable","type":"function"},{"inputs":[{"internalType":"uint256[2]","name":"_pA","type":"uint256[2]"},{"internalType":"uint256[2][2]","name":"_pB","type":"uint256[2][2]"},{"internalType":"uint256[2]","name":"_pC","type":"uint256[2]"},{"internalType":"uint256[1]","name":"_pubSignals","type":"uint256[1]"}],"name":"verifyProof","outputs":[{"internalType":"bool","name":"","type":"bool"}],"stateMutability":"view","type":"function"}],"evm":{"bytecode":{"linkReferences":{},"object":"608060405234801561001057600080fd5b50610eb1806100206000396000f3fe608060405234801561001057600080fd5b50600436106100365760003560e01c806343753b4d1461003b578063e91a8b021461006b575b600080fd5b6100556004803603810190610050919061089a565b61009b565b604051610062919061091e565b60405180910390f35b6100856004803603810190610080919061089a565b6104f6565b604051610092919061091e565b60405180910390f35b60006104c7565b7f30644e72e131a029b85045b68181585d2833e84879b9709143e1f593f000000181106100d3576000805260206000f35b50565b600060405183815284602082015285604082015260408160608360076107d05a03fa915081610109576000805260206000f35b825160408201526020830151606082015260408360808360066107d05a03fa915081610139576000805260206000f35b505050505050565b600060808601600087017ef928a2e9cfb7e54893b3fe11f6dc623eda7e22ab4298c8fdcae26b957547ae81527f28227e92250d8358a6a5ce931dea37ea5b92af6e6776d8636180427e8a100af760208201526101e360008801357f29491c31da1512614e7500ac494d05ad3c101d7c43b4400fca859ae4b05e174c7f17db2bf79d45fbf32b1ae343fc599f47b3743bd7220e732358f608d999a4b33b846100d6565b833582527f30644e72e131a029b85045b68181585d97816a916871ca8d3c208c16d87cfd4760208501357f30644e72e131a029b85045b68181585d97816a916871ca8d3c208c16d87cfd4703066020830152843560408301526020850135606083015260408501356080830152606085013560a08301527f0fa97dbe05c01604f78e309ff166a3d1ca5a169ad7e4c273978b2d12951b3aa860c08301527f1ce3d36ac75c22ca880a3589453dd56d74ebcd3dc0d02bbd68b34d5d7950ca2960e08301527f08854137860062e4ae212836201a5afcfe3f37123650b07b4ccbbe81528d77b16101008301527f061483df5d4504f9f4c4d0db42fc7ff28dca2e621cedbddef0fc1517ba3608686101208301527f234436eb026880fecd883256f20c9bf04145e8d2851134db03fb0750a0eaae3a6101408301527f0477051796d060fccce2dcb65437ad24c044e0ead79119f3eb26f1ac3ce97b7b610160830152600088015161018083015260206000018801516101a08301527f198e9393920d483a7260bfb731fb5d25f1aa493335a9e71297e485b7aef312c26101c08301527f1800deef121f1e76426a00665e5c4479674322d4f75edadd46debd5cd992f6ed6101e08301527f090689d0585ff075ec9e99ad690c3395bc4b313370b38ef355acdadcd122975b6102008301527f12c85ea5db8c6deb4aab71808dcb408fe3d1e7690c43d37b4ce6cc0166fa7daa610220830152853561024083015260208601356102608301527f1701162b4bbe0b30850dd1122bdd28de2cf06041473fd56b37e3cbe3d085e1566102808301527f22cd0ad7c67e040b731a3dbcf792b9d2ce83989e4ee4f2a862940b519f22645f6102a08301527f1242f8d735331709b46a7fbafcdc8ead7b38590e658451786bff84a010e6041f6102c08301527f1f737f161db7270f05e5d5db789492a303d79f8db8fe45285887d8659c9831de6102e08301526020826103008460086107d05a03fa82518116935050505095945050505050565b60405161038081016040526104df60008401356100a2565b6104ec818486888a610141565b8060005260206000f35b600080610619866002806020026040519081016040528092919082600260200280828437600081840152601f19601f82011690508083019250505050505086600280602002604051908101604052809291906000905b828210156105a0578382604002016002806020026040519081016040528092919082600260200280828437600081840152601f19601f8201169050808301925050505050508152602001906001019061054c565b50505050866002806020026040519081016040528092919082600260200280828437600081840152601f19601f820116905080830192505050505050866001806020026040519081016040528092919082600160200280828437600081840152601f19601f8201169050808301925050505050506106e9565b90508061065b576040517f08c379a000000000000000000000000000000000000000000000000000000000815260040161065290610996565b60405180910390fd5b6000868686866040516020016106749493929190610a9e565b6040516020818303038152906040528051906020012090503373ffffffffffffffffffffffffffffffffffffffff167fa4b608d5bc20cd098913e8867c35f42efe2212ec0182f845e1d8fc70a7eef01583836040516106d4929190610afe565b60405180910390a28192505050949350505050565b60008060003073ffffffffffffffffffffffffffffffffffffffff168787878760405160240161071c9493929190610d53565b6040516020818303038152906040527f43753b4d000000000000000000000000000000000000000000000000000000007bffffffffffffffffffffffffffffffffffffffffffffffffffffffff19166020820180517bffffffffffffffffffffffffffffffffffffffffffffffffffffffff83818316178352505050506040516107a69190610e0b565b600060405180830381855afa9150503d80600081146107e1576040519150601f19603f3d011682016040523d82523d6000602084013e6107e6565b606091505b50915091508115806107f9575060208151105b1561080957600092505050610822565b8080602001905181019061081d9190610e4e565b925050505b949350505050565b600080fd5b600080fd5b6000819050826020600202820111156108505761084f61082f565b5b92915050565b6000819050826040600202820111156108725761087161082f565b5b92915050565b6000819050826020600102820111156108945761089361082f565b5b92915050565b60008060008061012085870312156108b5576108b461082a565b5b60006108c387828801610834565b94505060406108d487828801610856565b93505060c06108e587828801610834565b9250506101006108f787828801610878565b91505092959194509250565b60008115159050919050565b61091881610903565b82525050565b6000602082019050610933600083018461090f565b92915050565b600082825260208201905092915050565b7f496e76616c69642070726f6f6600000000000000000000000000000000000000600082015250565b6000610980600d83610939565b915061098b8261094a565b602082019050919050565b600060208201905081810360008301526109af81610973565b9050919050565b82818337505050565b6109cb604083836109b6565b5050565b600060029050919050565b600081905092915050565b6000819050919050565b6109fb604083836109b6565b5050565b6000610a0b83836109ef565b60408301905092915050565b600082905092915050565b6000604082019050919050565b610a38816109cf565b610a4281846109da565b9250610a4d826109e5565b8060005b83811015610a8657610a638284610a17565b610a6d87826109ff565b9650610a7883610a22565b925050600181019050610a51565b505050505050565b610a9a602083836109b6565b5050565b600061012082019050610ab460008301876109bf565b610ac16040830186610a2f565b610ace60c08301856109bf565b610adc610100830184610a8e565b95945050505050565b6000819050919050565b610af881610ae5565b82525050565b6000604082019050610b13600083018561090f565b610b206020830184610aef565b9392505050565b600060029050919050565b600081905092915050565b6000819050919050565b6000819050919050565b610b5a81610b47565b82525050565b6000610b6c8383610b51565b60208301905092915050565b6000602082019050919050565b610b8e81610b27565b610b988184610b32565b9250610ba382610b3d565b8060005b83811015610bd4578151610bbb8782610b60565b9650610bc683610b78565b925050600181019050610ba7565b505050505050565b600060029050919050565b6000819050919050565b600081905092915050565b610c0581610b27565b610c0f8184610bf1565b9250610c1a82610b3d565b8060005b83811015610c4b578151610c328782610b60565b9650610c3d83610b78565b925050600181019050610c1e565b505050505050565b6000610c5f8383610bfc565b60408301905092915050565b6000602082019050919050565b610c8181610bdc565b610c8b81846109da565b9250610c9682610be7565b8060005b83811015610cc7578151610cae8782610c53565b9650610cb983610c6b565b925050600181019050610c9a565b505050505050565b600060019050919050565b600081905092915050565b6000819050919050565b6000602082019050919050565b610d0581610ccf565b610d0f8184610cda565b9250610d1a82610ce5565b8060005b83811015610d4b578151610d328782610b60565b9650610d3d83610cef565b925050600181019050610d1e565b505050505050565b600061012082019050610d696000830187610b85565b610d766040830186610c78565b610d8360c0830185610b85565b610d91610100830184610cfc565b95945050505050565b600081519050919050565b600081905092915050565b60005b83811015610dce578082015181840152602081019050610db3565b60008484015250505050565b6000610de582610d9a565b610def8185610da5565b9350610dff818560208601610db0565b80840191505092915050565b6000610e178284610dda565b915081905092915050565b610e2b81610903565b8114610e3657600080fd5b50565b600081519050610e4881610e22565b92915050565b600060208284031215610e6457610e6361082a565b5b6000610e7284828501610e39565b9150509291505056fea26469706673582212204dd4e17bb26652bd996c55339c31564845223bcf5596bd6abd0692d9ed54178364736f6c63430008140033","opcodes":"PUSH1 0x80 PUSH1 0x40 MSTORE CALLVALUE DUP1 ISZERO PUSH2 0x10 JUMPI PUSH1 0x0 DUP1 REVERT JUMPDEST POP PUSH2 0xEB1 DUP1 PUSH2 0x20 PUSH1 0x0 CODECOPY PUSH1 0x0 RETURN INVALID PUSH1 0x80 PUSH1 0x40 MSTORE CALLVALUE DUP1 ISZERO PUSH2 0x10 JUMPI PUSH1 0x0 DUP1 REVERT JUMPDEST POP PUSH1 0x4 CALLDATASIZE LT PUSH2 0x36 JUMPI PUSH1 0x0 CALLDATALOAD PUSH1 0xE0 SHR DUP1 PUSH4 0x43753B4D EQ PUSH2 0x3B JUMPI DUP1 PUSH4 0xE91A8B02 EQ PUSH2 0x6B JUMPI JUMPDEST PUSH1 0x0 DUP1 REVERT JUMPDEST PUSH2 0x55 PUSH1 0x4 DUP1 CALLDATASIZE SUB DUP2 ADD SWAP1 PUSH2 0x50 SWAP2 SWAP1 PUSH2 0x89A JUMP JUMPDEST PUSH2 0x9B JUMP JUMPDEST PUSH1 0x40 MLOAD PUSH2 0x62 SWAP2 SWAP1 PUSH2 0x91E JUMP JUMPDEST PUSH1 0x40 MLOAD DUP1 SWAP2 SUB SWAP1 RETURN JUMPDEST PUSH2 0x85 PUSH1 0x4 DUP1 CALLDATASIZE SUB DUP2 ADD SWAP1 PUSH2 0x80 SWAP2 SWAP1 PUSH2 0x89A JUMP JUMPDEST PUSH2 0x4F6 JUMP JUMPDEST PUSH1 0x40 MLOAD PUSH2 0x92 SWAP2 SWAP1 PUSH2 0x91E JUMP JUMPDEST PUSH1 0x40 MLOAD DUP1 SWAP2 SUB SWAP1 RETURN JUMPDEST PUSH1 0x0 PUSH2 0x4C7 JUMP JUMPDEST PUSH32 0x30644E72E131A029B85045B68181585D2833E84879B9709143E1F593F0000001 DUP2 LT PUSH2 0xD3 JUMPI PUSH1 0x0 DUP1 MSTORE PUSH1 0x20 PUSH1 0x0 RETURN JUMPDEST POP JUMP JUMPDEST PUSH1 0x0 PUSH1 0x40 MLOAD DUP4 DUP2 MSTORE DUP5 PUSH1 0x20 DUP3 ADD MSTORE DUP6 PUSH1 0x40 DUP3 ADD MSTORE PUSH1 0x40 DUP2 PUSH1 0x60 DUP4 PUSH1 0x7 PUSH2 0x7D0 GAS SUB STATICCALL SWAP2 POP DUP2 PUSH2 0x109 JUMPI PUSH1 0x0 DUP1 MSTORE PUSH1 0x20 PUSH1 0x0 RETURN JUMPDEST DUP3 MLOAD PUSH1 0x40 DUP3 ADD MSTORE PUSH1 0x20 DUP4 ADD MLOAD PUSH1 0x60 DUP3 ADD MSTORE PUSH1 0x40 DUP4 PUSH1 0x80 DUP4 PUSH1 0x6 PUSH2 0x7D0 GAS SUB STATICCALL SWAP2 POP DUP2 PUSH2 0x139 JUMPI PUSH1 0x0 DUP1 MSTORE PUSH1 0x20 PUSH1 0x0 RETURN JUMPDEST POP POP POP POP POP POP JUMP JUMPDEST PUSH1 0x0 PUSH1 0x80 DUP7 ADD PUSH1 0x0 DUP8 ADD PUSH31 0xF928A2E9CFB7E54893B3FE11F6DC623EDA7E22AB4298C8FDCAE26B957547AE DUP2 MSTORE PUSH32 0x28227E92250D8358A6A5CE931DEA37EA5B92AF6E6776D8636180427E8A100AF7 PUSH1 0x20 DUP3 ADD MSTORE PUSH2 0x1E3 PUSH1 0x0 DUP9 ADD CALLDATALOAD PUSH32 0x29491C31DA1512614E7500AC494D05AD3C101D7C43B4400FCA859AE4B05E174C PUSH32 0x17DB2BF79D45FBF32B1AE343FC599F47B3743BD7220E732358F608D999A4B33B DUP5 PUSH2 0xD6 JUMP JUMPDEST DUP4 CALLDATALOAD DUP3 MSTORE PUSH32 0x30644E72E131A029B85045B68181585D97816A916871CA8D3C208C16D87CFD47 PUSH1 0x20 DUP6 ADD CALLDATALOAD PUSH32 0x30644E72E131A029B85045B68181585D97816A916871CA8D3C208C16D87CFD47 SUB MOD PUSH1 0x20 DUP4 ADD MSTORE DUP5 CALLDATALOAD PUSH1 0x40 DUP4 ADD MSTORE PUSH1 0x20 DUP6 ADD CALLDATALOAD PUSH1 0x60 DUP4 ADD MSTORE PUSH1 0x40 DUP6 ADD CALLDATALOAD PUSH1 0x80 DUP4 ADD MSTORE PUSH1 0x60 DUP6 ADD CALLDATALOAD PUSH1 0xA0 DUP4 ADD MSTORE PUSH32 0xFA97DBE05C01604F78E309FF166A3D1CA5A169AD7E4C273978B2D12951B3AA8 PUSH1 0xC0 DUP4 ADD MSTORE PUSH32 0x1CE3D36AC75C22CA880A3589453DD56D74EBCD3DC0D02BBD68B34D5D7950CA29 PUSH1 0xE0 DUP4 ADD MSTORE PUSH32 0x8854137860062E4AE212836201A5AFCFE3F37123650B07B4CCBBE81528D77B1 PUSH2 0x100 DUP4 ADD MSTORE PUSH32 0x61483DF5D4504F9F4C4D0DB42FC7FF28DCA2E621CEDBDDEF0FC1517BA360868 PUSH2 0x120 DUP4 ADD MSTORE PUSH32 0x234436EB026880FECD883256F20C9BF04145E8D2851134DB03FB0750A0EAAE3A PUSH2 0x140 DUP4 ADD MSTORE PUSH32 0x477051796D060FCCCE2DCB65437AD24C044E0EAD79119F3EB26F1AC3CE97B7B PUSH2 0x160 DUP4 ADD MSTORE PUSH1 0x0 DUP9 ADD MLOAD PUSH2 0x180 DUP4 ADD MSTORE PUSH1 0x20 PUSH1 0x0 ADD DUP9 ADD MLOAD PUSH2 0x1A0 DUP4 ADD MSTORE PUSH32 0x198E9393920D483A7260BFB731FB5D25F1AA493335A9E71297E485B7AEF312C2 PUSH2 0x1C0 DUP4 ADD MSTORE PUSH32 0x1800DEEF121F1E76426A00665E5C4479674322D4F75EDADD46DEBD5CD992F6ED PUSH2 0x1E0 DUP4 ADD MSTORE PUSH32 0x90689D0585FF075EC9E99AD690C3395BC4B313370B38EF355ACDADCD122975B PUSH2 0x200 DUP4 ADD MSTORE PUSH32 0x12C85EA5DB8C6DEB4AAB71808DCB408FE3D1E7690C43D37B4CE6CC0166FA7DAA PUSH2 0x220 DUP4 ADD MSTORE DUP6 CALLDATALOAD PUSH2 0x240 DUP4 ADD MSTORE PUSH1 0x20 DUP7 ADD CALLDATALOAD PUSH2 0x260 DUP4 ADD MSTORE PUSH32 0x1701162B4BBE0B30850DD1122BDD28DE2CF06041473FD56B37E3CBE3D085E156 PUSH2 0x280 DUP4 ADD MSTORE PUSH32 0x22CD0AD7C67E040B731A3DBCF792B9D2CE83989E4EE4F2A862940B519F22645F PUSH2 0x2A0 DUP4 ADD MSTORE PUSH32 0x1242F8D735331709B46A7FBAFCDC8EAD7B38590E658451786BFF84A010E6041F PUSH2 0x2C0 DUP4 ADD MSTORE PUSH32 0x1F737F161DB7270F05E5D5DB789492A303D79F8DB8FE45285887D8659C9831DE PUSH2 0x2E0 DUP4 ADD MSTORE PUSH1 0x20 DUP3 PUSH2 0x300 DUP5 PUSH1 0x8 PUSH2 0x7D0 GAS SUB STATICCALL DUP3 MLOAD DUP2 AND SWAP4 POP POP POP POP SWAP6 SWAP5 POP POP POP POP POP JUMP JUMPDEST PUSH1 0x40 MLOAD PUSH2 0x380 DUP2 ADD PUSH1 0x40 MSTORE PUSH2 0x4DF PUSH1 0x0 DUP5 ADD CALLDATALOAD PUSH2 0xA2 JUMP JUMPDEST PUSH2 0x4EC DUP2 DUP5 DUP7 DUP9 DUP11 PUSH2 0x141 JUMP JUMPDEST DUP1 PUSH1 0x0 MSTORE PUSH1 0x20 PUSH1 0x0 RETURN JUMPDEST PUSH1 0x0 DUP1 PUSH2 0x619 DUP7 PUSH1 0x2 DUP1 PUSH1 0x20 MUL PUSH1 0x40 MLOAD SWAP1 DUP2 ADD PUSH1 0x40 MSTORE DUP1 SWAP3 SWAP2 SWAP1 DUP3 PUSH1 0x2 PUSH1 0x20 MUL DUP1 DUP3 DUP5 CALLDATACOPY PUSH1 0x0 DUP2 DUP5 ADD MSTORE PUSH1 0x1F NOT PUSH1 0x1F DUP3 ADD AND SWAP1 POP DUP1 DUP4 ADD SWAP3 POP POP POP POP POP POP DUP7 PUSH1 0x2 DUP1 PUSH1 0x20 MUL PUSH1 0x40 MLOAD SWAP1 DUP2 ADD PUSH1 0x40 MSTORE DUP1 SWAP3 SWAP2 SWAP1 PUSH1 0x0 SWAP1 JUMPDEST DUP3 DUP3 LT ISZERO PUSH2 0x5A0 JUMPI DUP4 DUP3 PUSH1 0x40 MUL ADD PUSH1 0x2 DUP1 PUSH1 0x20 MUL PUSH1 0x40 MLOAD SWAP1 DUP2 ADD PUSH1 0x40 MSTORE DUP1 SWAP3 SWAP2 SWAP1 DUP3 PUSH1 0x2 PUSH1 0x20 MUL DUP1 DUP3 DUP5 CALLDATACOPY PUSH1 0x0 DUP2 DUP5 ADD MSTORE PUSH1 0x1F NOT PUSH1 0x1F DUP3 ADD AND SWAP1 POP DUP1 DUP4 ADD SWAP3 POP POP POP POP POP POP DUP2 MSTORE PUSH1 0x20 ADD SWAP1 PUSH1 0x1 ADD SWAP1 PUSH2 0x54C JUMP JUMPDEST POP POP POP POP DUP7 PUSH1 0x2 DUP1 PUSH1 0x20 MUL PUSH1 0x40 MLOAD SWAP1 DUP2 ADD PUSH1 0x40 MSTORE DUP1 SWAP3 SWAP2 SWAP1 DUP3 PUSH1 0x2 PUSH1 0x20 MUL DUP1 DUP3 DUP5 CALLDATACOPY PUSH1 0x0 DUP2 DUP5 ADD MSTORE PUSH1 0x1F NOT PUSH1 0x1F DUP3 ADD AND SWAP1 POP DUP1 DUP4 ADD SWAP3 POP POP POP POP POP POP DUP7 PUSH1 0x1 DUP1 PUSH1 0x20 MUL PUSH1 0x40 MLOAD SWAP1 DUP2 ADD PUSH1 0x40 MSTORE DUP1 SWAP3 SWAP2 SWAP1 DUP3 PUSH1 0x1 PUSH1 0x20 MUL DUP1 DUP3 DUP5 CALLDATACOPY PUSH1 0x0 DUP2 DUP5 ADD MSTORE PUSH1 0x1F NOT PUSH1 0x1F DUP3 ADD AND SWAP1 POP DUP1 DUP4 ADD SWAP3 POP POP POP POP POP POP PUSH2 0x6E9 JUMP JUMPDEST SWAP1 POP DUP1 PUSH2 0x65B JUMPI PUSH1 0x40 MLOAD PUSH32 0x8C379A000000000000000000000000000000000000000000000000000000000 DUP2 MSTORE PUSH1 0x4 ADD PUSH2 0x652 SWAP1 PUSH2 0x996 JUMP JUMPDEST PUSH1 0x40 MLOAD DUP1 SWAP2 SUB SWAP1 REVERT JUMPDEST PUSH1 0x0 DUP7 DUP7 DUP7 DUP7 PUSH1 0x40 MLOAD PUSH1 0x20 ADD PUSH2 0x674 SWAP5 SWAP4 SWAP3 SWAP2 SWAP1 PUSH2 0xA9E JUMP JUMPDEST PUSH1 0x40 MLOAD PUSH1 0x20 DUP2 DUP4 SUB SUB DUP2 MSTORE SWAP1 PUSH1 0x40 MSTORE DUP1 MLOAD SWAP1 PUSH1 0x20 ADD KECCAK256 SWAP1 POP CALLER PUSH20 0xFFFFFFFFFFFFFFFFFFFFFFFFFFFFFFFFFFFFFFFF AND PUSH32 0xA4B608D5BC20CD098913E8867C35F42EFE2212EC0182F845E1D8FC70A7EEF015 DUP4 DUP4 PUSH1 0x40 MLOAD PUSH2 0x6D4 SWAP3 SWAP2 SWAP1 PUSH2 0xAFE JUMP JUMPDEST PUSH1 0x40 MLOAD DUP1 SWAP2 SUB SWAP1 LOG2 DUP2 SWAP3 POP POP POP SWAP5 SWAP4 POP POP POP POP JUMP JUMPDEST PUSH1 0x0 DUP1 PUSH1 0x0 ADDRESS PUSH20 0xFFFFFFFFFFFFFFFFFFFFFFFFFFFFFFFFFFFFFFFF AND DUP8 DUP8 DUP8 DUP8 PUSH1 0x40 MLOAD PUSH1 0x24 ADD PUSH2 0x71C SWAP5 SWAP4 SWAP3 SWAP2 SWAP1 PUSH2 0xD53 JUMP JUMPDEST PUSH1 0x40 MLOAD PUSH1 0x20 DUP2 DUP4 SUB SUB DUP2 MSTORE SWAP1 PUSH1 0x40 MSTORE PUSH32 0x43753B4D00000000000000000000000000000000000000000000000000000000 PUSH28 0xFFFFFFFFFFFFFFFFFFFFFFFFFFFFFFFFFFFFFFFFFFFFFFFFFFFFFFFF NOT AND PUSH1 0x20 DUP3 ADD DUP1 MLOAD PUSH28 0xFFFFFFFFFFFFFFFFFFFFFFFFFFFFFFFFFFFFFFFFFFFFFFFFFFFFFFFF DUP4 DUP2 DUP4 AND OR DUP4 MSTORE POP POP POP POP PUSH1 0x40 MLOAD PUSH2 0x7A6 SWAP2 SWAP1 PUSH2 0xE0B JUMP JUMPDEST PUSH1 0x0 PUSH1 0x40 MLOAD DUP1 DUP4 SUB DUP2 DUP6 GAS STATICCALL SWAP2 POP POP RETURNDATASIZE DUP1 PUSH1 0x0 DUP2 EQ PUSH2 0x7E1 JUMPI PUSH1 0x40 MLOAD SWAP2 POP PUSH1 0x1F NOT PUSH1 0x3F RETURNDATASIZE ADD AND DUP3 ADD PUSH1 0x40 MSTORE RETURNDATASIZE DUP3 MSTORE RETURNDATASIZE PUSH1 0x0 PUSH1 0x20 DUP5 ADD RETURNDATACOPY PUSH2 0x7E6 JUMP JUMPDEST PUSH1 0x60 SWAP2 POP JUMPDEST POP SWAP2 POP SWAP2 POP DUP2 ISZERO DUP1 PUSH2 0x7F9 JUMPI POP PUSH1 0x20 DUP2 MLOAD LT JUMPDEST ISZERO PUSH2 0x809 JUMPI PUSH1 0x0 SWAP3 POP POP POP PUSH2 0x822 JUMP JUMPDEST DUP1 DUP1 PUSH1 0x20 ADD SWAP1 MLOAD DUP2 ADD SWAP1 PUSH2 0x81D SWAP2 SWAP1 PUSH2 0xE4E JUMP JUMPDEST SWAP3 POP POP POP JUMPDEST SWAP5 SWAP4 POP POP POP POP JUMP JUMPDEST PUSH1 0x0 DUP1 REVERT JUMPDEST PUSH1 0x0 DUP1 REVERT JUMPDEST PUSH1 0x0 DUP2 SWAP1 POP DUP3 PUSH1 0x20 PUSH1 0x2 MUL DUP3 ADD GT ISZERO PUSH2 0x850 JUMPI PUSH2 0x84F PUSH2 0x82F JUMP JUMPDEST JUMPDEST SWAP3 SWAP2 POP POP JUMP JUMPDEST PUSH1 0x0 DUP2 SWAP1 POP DUP3 PUSH1 0x40 PUSH1 0x2 MUL DUP3 ADD GT ISZERO PUSH2 0x872 JUMPI PUSH2 0x871 PUSH2 0x82F JUMP JUMPDEST JUMPDEST SWAP3 SWAP2 POP POP JUMP JUMPDEST PUSH1 0x0 DUP2 SWAP1 POP DUP3 PUSH1 0x20 PUSH1 0x1 MUL DUP3 ADD GT ISZERO PUSH2 0x894 JUMPI PUSH2 0x893 PUSH2 0x82F JUMP JUMPDEST JUMPDEST SWAP3 SWAP2 POP POP JUMP JUMPDEST PUSH1 0x0 DUP1 PUSH1 0x0 DUP1 PUSH2 0x120 DUP6 DUP8 SUB SLT ISZERO PUSH2 0x8B5 JUMPI PUSH2 0x8B4 PUSH2 0x82A JUMP JUMPDEST JUMPDEST PUSH1 0x0 PUSH2 0x8C3 DUP8 DUP3 DUP9 ADD PUSH2 0x834 JUMP JUMPDEST SWAP5 POP POP PUSH1 0x40 PUSH2 0x8D4 DUP8 DUP3 DUP9 ADD PUSH2 0x856 JUMP JUMPDEST SWAP4 POP POP PUSH1 0xC0 PUSH2 0x8E5 DUP8 DUP3 DUP9 ADD PUSH2 0x834 JUMP JUMPDEST SWAP3 POP POP PUSH2 0x100 PUSH2 0x8F7 DUP8 DUP3 DUP9 ADD PUSH2 0x878 JUMP JUMPDEST SWAP2 POP POP SWAP3 SWAP6 SWAP2 SWAP5 POP SWAP3 POP JUMP JUMPDEST PUSH1 0x0 DUP2 ISZERO ISZERO SWAP1 POP SWAP2 SWAP1 POP JUMP JUMPDEST PUSH2 0x918 DUP2 PUSH2 0x903 JUMP JUMPDEST DUP3 MSTORE POP POP JUMP JUMPDEST PUSH1 0x0 PUSH1 0x20 DUP3 ADD SWAP1 POP PUSH2 0x933 PUSH1 0x0 DUP4 ADD DUP5 PUSH2 0x90F JUMP JUMPDEST SWAP3 SWAP2 POP POP JUMP JUMPDEST PUSH1 0x0 DUP3 DUP3 MSTORE PUSH1 0x20 DUP3 ADD SWAP1 POP SWAP3 SWAP2 POP POP JUMP JUMPDEST PUSH32 0x496E76616C69642070726F6F6600000000000000000000000000000000000000 PUSH1 0x0 DUP3 ADD MSTORE POP JUMP JUMPDEST PUSH1 0x0 PUSH2 0x980 PUSH1 0xD DUP4 PUSH2 0x939 JUMP JUMPDEST SWAP2 POP PUSH2 0x98B DUP3 PUSH2 0x94A JUMP JUMPDEST PUSH1 0x20 DUP3 ADD SWAP1 POP SWAP2 SWAP1 POP JUMP JUMPDEST PUSH1 0x0 PUSH1 0x20 DUP3 ADD SWAP1 POP DUP2 DUP2 SUB PUSH1 0x0 DUP4 ADD MSTORE PUSH2 0x9AF DUP2 PUSH2 0x973 JUMP JUMPDEST SWAP1 POP SWAP2 SWAP1 POP JUMP JUMPDEST DUP3 DUP2 DUP4 CALLDATACOPY POP POP POP JUMP JUMPDEST PUSH2 0x9CB PUSH1 0x40 DUP4 DUP4 PUSH2 0x9B6 JUMP JUMPDEST POP POP JUMP JUMPDEST PUSH1 0x0 PUSH1 0x2 SWAP1 POP SWAP2 SWAP1 POP JUMP JUMPDEST PUSH1 0x0 DUP2 SWAP1 POP SWAP3 SWAP2 POP POP JUMP JUMPDEST PUSH1 0x0 DUP2 SWAP1 POP SWAP2 SWAP1 POP JUMP JUMPDEST PUSH2 0x9FB PUSH1 0x40 DUP4 DUP4 PUSH2 0x9B6 JUMP JUMPDEST POP POP JUMP JUMPDEST PUSH1 0x0 PUSH2 0xA0B DUP4 DUP4 PUSH2 0x9EF JUMP JUMPDEST PUSH1 0x40 DUP4 ADD SWAP1 POP SWAP3 SWAP2 POP POP JUMP JUMPDEST PUSH1 0x0 DUP3 SWAP1 POP SWAP3 SWAP2 POP POP JUMP JUMPDEST PUSH1 0x0 PUSH1 0x40 DUP3 ADD SWAP1 POP SWAP2 SWAP1 POP JUMP JUMPDEST PUSH2 0xA38 DUP2 PUSH2 0x9CF JUMP JUMPDEST PUSH2 0xA42 DUP2 DUP5 PUSH2 0x9DA JUMP JUMPDEST SWAP3 POP PUSH2 0xA4D DUP3 PUSH2 0x9E5 JUMP JUMPDEST DUP1 PUSH1 0x0 JUMPDEST DUP4 DUP2 LT ISZERO PUSH2 0xA86 JUMPI PUSH2 0xA63 DUP3 DUP5 PUSH2 0xA17 JUMP JUMPDEST PUSH2 0xA6D DUP8 DUP3 PUSH2 0x9FF JUMP JUMPDEST SWAP7 POP PUSH2 0xA78 DUP4 PUSH2 0xA22 JUMP JUMPDEST SWAP3 POP POP PUSH1 0x1 DUP2 ADD SWAP1 POP PUSH2 0xA51 JUMP JUMPDEST POP POP POP POP POP POP JUMP JUMPDEST PUSH2 0xA9A PUSH1 0x20 DUP4 DUP4 PUSH2 0x9B6 JUMP JUMPDEST POP POP JUMP JUMPDEST PUSH1 0x0 PUSH2 0x120 DUP3 ADD SWAP1 POP PUSH2 0xAB4 PUSH1 0x0 DUP4 ADD DUP8 PUSH2 0x9BF JUMP JUMPDEST PUSH2 0xAC1 PUSH1 0x40 DUP4 ADD DUP7 PUSH2 0xA2F JUMP JUMPDEST PUSH2 0xACE PUSH1 0xC0 DUP4 ADD DUP6 PUSH2 0x9BF JUMP JUMPDEST PUSH2 0xADC PUSH2 0x100 DUP4 ADD DUP5 PUSH2 0xA8E JUMP JUMPDEST SWAP6 SWAP5 POP POP POP POP POP JUMP JUMPDEST PUSH1 0x0 DUP2 SWAP1 POP SWAP2 SWAP1 POP JUMP JUMPDEST PUSH2 0xAF8 DUP2 PUSH2 0xAE5 JUMP JUMPDEST DUP3 MSTORE POP POP JUMP JUMPDEST PUSH1 0x0 PUSH1 0x40 DUP3 ADD SWAP1 POP PUSH2 0xB13 PUSH1 0x0 DUP4 ADD DUP6 PUSH2 0x90F JUMP JUMPDEST PUSH2 0xB20 PUSH1 0x20 DUP4 ADD DUP5 PUSH2 0xAEF JUMP JUMPDEST SWAP4 SWAP3 POP POP POP JUMP JUMPDEST PUSH1 0x0 PUSH1 0x2 SWAP1 POP SWAP2 SWAP1 POP JUMP JUMPDEST PUSH1 0x0 DUP2 SWAP1 POP SWAP3 SWAP2 POP POP JUMP JUMPDEST PUSH1 0x0 DUP2 SWAP1 POP SWAP2 SWAP1 POP JUMP JUMPDEST PUSH1 0x0 DUP2 SWAP1 POP SWAP2 SWAP1 POP JUMP JUMPDEST PUSH2 0xB5A DUP2 PUSH2 0xB47 JUMP JUMPDEST DUP3 MSTORE POP POP JUMP JUMPDEST PUSH1 0x0 PUSH2 0xB6C DUP4 DUP4 PUSH2 0xB51 JUMP JUMPDEST PUSH1 0x20 DUP4 ADD SWAP1 POP SWAP3 SWAP2 POP POP JUMP JUMPDEST PUSH1 0x0 PUSH1 0x20 DUP3 ADD SWAP1 POP SWAP2 SWAP1 POP JUMP JUMPDEST PUSH2 0xB8E DUP2 PUSH2 0xB27 JUMP JUMPDEST PUSH2 0xB98 DUP2 DUP5 PUSH2 0xB32 JUMP JUMPDEST SWAP3 POP PUSH2 0xBA3 DUP3 PUSH2 0xB3D JUMP JUMPDEST DUP1 PUSH1 0x0 JUMPDEST DUP4 DUP2 LT ISZERO PUSH2 0xBD4 JUMPI DUP2 MLOAD PUSH2 0xBBB DUP8 DUP3 PUSH2 0xB60 JUMP JUMPDEST SWAP7 POP PUSH2 0xBC6 DUP4 PUSH2 0xB78 JUMP JUMPDEST SWAP3 POP POP PUSH1 0x1 DUP2 ADD SWAP1 POP PUSH2 0xBA7 JUMP JUMPDEST POP POP POP POP POP POP JUMP JUMPDEST PUSH1 0x0 PUSH1 0x2 SWAP1 POP SWAP2 SWAP1 POP JUMP JUMPDEST PUSH1 0x0 DUP2 SWAP1 POP SWAP2 SWAP1 POP JUMP JUMPDEST PUSH1 0x0 DUP2 SWAP1 POP SWAP3 SWAP2 POP POP JUMP JUMPDEST PUSH2 0xC05 DUP2 PUSH2 0xB27 JUMP JUMPDEST PUSH2 0xC0F DUP2 DUP5 PUSH2 0xBF1 JUMP JUMPDEST SWAP3 POP PUSH2 0xC1A DUP3 PUSH2 0xB3D JUMP JUMPDEST DUP1 PUSH1 0x0 JUMPDEST DUP4 DUP2 LT ISZERO PUSH2 0xC4B JUMPI DUP2 MLOAD PUSH2 0xC32 DUP8 DUP3 PUSH2 0xB60 JUMP JUMPDEST SWAP7 POP PUSH2 0xC3D DUP4 PUSH2 0xB78 JUMP JUMPDEST SWAP3 POP POP PUSH1 0x1 DUP2 ADD SWAP1 POP PUSH2 0xC1E JUMP JUMPDEST POP POP POP POP POP POP JUMP JUMPDEST PUSH1 0x0 PUSH2 0xC5F DUP4 DUP4 PUSH2 0xBFC JUMP JUMPDEST PUSH1 0x40 DUP4 ADD SWAP1 POP SWAP3 SWAP2 POP POP JUMP JUMPDEST PUSH1 0x0 PUSH1 0x20 DUP3 ADD SWAP1 POP SWAP2 SWAP1 POP JUMP JUMPDEST PUSH2 0xC81 DUP2 PUSH2 0xBDC JUMP JUMPDEST PUSH2 0xC8B DUP2 DUP5 PUSH2 0x9DA JUMP JUMPDEST SWAP3 POP PUSH2 0xC96 DUP3 PUSH2 0xBE7 JUMP JUMPDEST DUP1 PUSH1 0x0 JUMPDEST DUP4 DUP2 LT ISZERO PUSH2 0xCC7 JUMPI DUP2 MLOAD PUSH2 0xCAE DUP8 DUP3 PUSH2 0xC53 JUMP JUMPDEST SWAP7 POP PUSH2 0xCB9 DUP4 PUSH2 0xC6B JUMP JUMPDEST SWAP3 POP POP PUSH1 0x1 DUP2 ADD SWAP1 POP PUSH2 0xC9A JUMP JUMPDEST POP POP POP POP POP POP JUMP JUMPDEST PUSH1 0x0 PUSH1 0x1 SWAP1 POP SWAP2 SWAP1 POP JUMP JUMPDEST PUSH1 0x0 DUP2 SWAP1 POP SWAP3 SWAP2 POP POP JUMP JUMPDEST PUSH1 0x0 DUP2 SWAP1 POP SWAP2 SWAP1 POP JUMP JUMPDEST PUSH1 0x0 PUSH1 0x20 DUP3 ADD SWAP1 POP SWAP2 SWAP1 POP JUMP JUMPDEST PUSH2 0xD05 DUP2 PUSH2 0xCCF JUMP JUMPDEST PUSH2 0xD0F DUP2 DUP5 PUSH2 0xCDA JUMP JUMPDEST SWAP3 POP PUSH2 0xD1A DUP3 PUSH2 0xCE5 JUMP JUMPDEST DUP1 PUSH1 0x0 JUMPDEST DUP4 DUP2 LT ISZERO PUSH2 0xD4B JUMPI DUP2 MLOAD PUSH2 0xD32 DUP8 DUP3 PUSH2 0xB60 JUMP JUMPDEST SWAP7 POP PUSH2 0xD3D DUP4 PUSH2 0xCEF JUMP JUMPDEST SWAP3 POP POP PUSH1 0x1 DUP2 ADD SWAP1 POP PUSH2 0xD1E JUMP JUMPDEST POP POP POP POP POP POP JUMP JUMPDEST PUSH1 0x0 PUSH2 0x120 DUP3 ADD SWAP1 POP PUSH2 0xD69 PUSH1 0x0 DUP4 ADD DUP8 PUSH2 0xB85 JUMP JUMPDEST PUSH2 0xD76 PUSH1 0x40 DUP4 ADD DUP7 PUSH2 0xC78 JUMP JUMPDEST PUSH2 0xD83 PUSH1 0xC0 DUP4 ADD DUP6 PUSH2 0xB85 JUMP JUMPDEST PUSH2 0xD91 PUSH2 0x100 DUP4 ADD DUP5 PUSH2 0xCFC JUMP JUMPDEST SWAP6 SWAP5 POP POP POP POP POP JUMP JUMPDEST PUSH1 0x0 DUP2 MLOAD SWAP1 POP SWAP2 SWAP1 POP JUMP JUMPDEST PUSH1 0x0 DUP2 SWAP1 POP SWAP3 SWAP2 POP POP JUMP JUMPDEST PUSH1 0x0 JUMPDEST DUP4 DUP2 LT ISZERO PUSH2 0xDCE JUMPI DUP1 DUP3 ADD MLOAD DUP2 DUP5 ADD MSTORE PUSH1 0x20 DUP2 ADD SWAP1 POP PUSH2 0xDB3 JUMP JUMPDEST PUSH1 0x0 DUP5 DUP5 ADD MSTORE POP POP POP POP JUMP JUMPDEST PUSH1 0x0 PUSH2 0xDE5 DUP3 PUSH2 0xD9A JUMP JUMPDEST PUSH2 0xDEF DUP2 DUP6 PUSH2 0xDA5 JUMP JUMPDEST SWAP4 POP PUSH2 0xDFF DUP2 DUP6 PUSH1 0x20 DUP7 ADD PUSH2 0xDB0 JUMP JUMPDEST DUP1 DUP5 ADD SWAP2 POP POP SWAP3 SWAP2 POP POP JUMP JUMPDEST PUSH1 0x0 PUSH2 0xE17 DUP3 DUP5 PUSH2 0xDDA JUMP JUMPDEST SWAP2 POP DUP2 SWAP1 POP SWAP3 SWAP2 POP POP JUMP JUMPDEST PUSH2 0xE2B DUP2 PUSH2 0x903 JUMP JUMPDEST DUP2 EQ PUSH2 0xE36 JUMPI PUSH1 0x0 DUP1 REVERT JUMPDEST POP JUMP JUMPDEST PUSH1 0x0 DUP2 MLOAD SWAP1 POP PUSH2 0xE48 DUP2 PUSH2 0xE22 JUMP JUMPDEST SWAP3 SWAP2 POP POP JUMP JUMPDEST PUSH1 0x0 PUSH1 0x20 DUP3 DUP5 SUB SLT ISZERO PUSH2 0xE64 JUMPI PUSH2 0xE63 PUSH2 0x82A JUMP JUMPDEST JUMPDEST PUSH1 0x0 PUSH2 0xE72 DUP5 DUP3 DUP6 ADD PUSH2 0xE39 JUMP JUMPDEST SWAP2 POP POP SWAP3 SWAP2 POP POP JUMP INVALID LOG2 PUSH5 0x6970667358 0x22 SLT KECCAK256 0x4D 0xD4 0xE1 PUSH28 0xB26652BD996C55339C31564845223BCF5596BD6ABD0692D9ED541783 PUSH5 0x736F6C6343 STOP ADDMOD EQ STOP CALLER "},"methodIdentifiers":{"submitTallyProof(uint256[2],uint256[2][2],uint256[2],uint256[1])":"e91a8b02","verifyProof(uint256[2],uint256[2][2],uint256[2],uint256[1])":"43753b4d"}}}}}