{"contracts/TallyVerifier.sol":{"TallyVerifierOnChain":{"abi":[{"anonymous":false,"inputs":[{"indexed":true,"internalType":"address","name":"sender","type":"address"},{"indexed":false,"internalType":"bool","name":"isValid","type":"bool"},{"indexed":false,"internalType":"bytes32","name":"proofHash","type":"bytes32"}],"name":"ProofVerified","type":"event"},{"inputs":[{"internalType":"uint256[2]","name":"a","type":"uint256[2]"},{"internalType":"uint256[2][2]","name":"b","type":"uint256[2][2]"},{"internalType":"uint256[2]","name":"c","type":"uint256[2]"},{"internalType":"uint256[1]","name":"inputSignals","type":"uint256[1]"}],"name":"submitTallyProof","outputs":[{"internalType":"bool","name":"","type":"bool"}],"stateMutability":"nonpayable","type":"function"},{"inputs":[{"internalType":"uint256[2]","name":"_pA","type":"uint256[2]"},{"internalType":"uint256[2][2]","name":"_pB","type":"uint256[2][2]"},{"internalType":"uint256[2]","name":"_pC","type":"uint256[2]"},{"internalType":"uint256[1]","name":"_pubSignals","type":"uint256[1]"}],"name":"verifyProof","outputs":[{"internalType":"bool","name":"","type":"bool"}],"stateMutability":"view","type":"function"}],"evm":{"bytecode":{"linkReferences":{},"object":"608060405234801561001057600080fd5b50610eb2806100206000396000f3fe608060405234801561001057600080fd5b50600436106100365760003560e01c806343753b4d1461003b578063e91a8b021461006b575b600080fd5b6100556004803603810190610050919061089b565b61009b565b604051610062919061091f565b60405180910390f35b6100856004803603810190610080919061089b565b6104f7565b604051610092919061091f565b60405180910390f35b60006104c8565b7f30644e72e131a029b85045b68181585d2833e84879b9709143e1f593f000000181106100d3576000805260206000f35b50565b600060405183815284602082015285604082015260408160608360076107d05a03fa915081610109576000805260206000f35b825160408201526020830151606082015260408360808360066107d05a03fa915081610139576000805260206000f35b505050505050565b600060808601600087017f141d7c2e3ca96f73b5b9c4048dc1ca4b15fa5ea7739d8f49f91069c02236a30281527f29cb4a338d4917acbcfd63b145752ee69b3985ddf8f18b59068de03d03b248d960208201526101e460008801357f19acd0fc8c455d81a3551f830cc78e82ffe1d558352382be204041e6ca8661d07f236cc4327867f454e63a716470c22839dd1cef155f541a94faedd6feb6d9a28b846100d6565b833582527f30644e72e131a029b85045b68181585d97816a916871ca8d3c208c16d87cfd4760208501357f30644e72e131a029b85045b68181585d97816a916871ca8d3c208c16d87cfd4703066020830152843560408301526020850135606083015260408501356080830152606085013560a08301527f0fa97dbe05c01604f78e309ff166a3d1ca5a169ad7e4c273978b2d12951b3aa860c08301527f1ce3d36ac75c22ca880a3589453dd56d74ebcd3dc0d02bbd68b34d5d7950ca2960e08301527f08854137860062e4ae212836201a5afcfe3f37123650b07b4ccbbe81528d77b16101008301527f061483df5d4504f9f4c4d0db42fc7ff28dca2e621cedbddef0fc1517ba3608686101208301527f234436eb026880fecd883256f20c9bf04145e8d2851134db03fb0750a0eaae3a6101408301527f0477051796d060fccce2dcb65437ad24c044e0ead79119f3eb26f1ac3ce97b7b610160830152600088015161018083015260206000018801516101a08301527f198e9393920d483a7260bfb731fb5d25f1aa493335a9e71297e485b7aef312c26101c08301527f1800deef121f1e76426a00665e5c4479674322d4f75edadd46debd5cd992f6ed6101e08301527f090689d0585ff075ec9e99ad690c3395bc4b313370b38ef355acdadcd122975b6102008301527f12c85ea5db8c6deb4aab71808dcb408fe3d1e7690c43d37b4ce6cc0166fa7daa610220830152853561024083015260208601356102608301527f0e51e12b1544ede4b6d389cf19bb428574e05284439892952fd29849923fba266102808301527f2fc6bf44a4fbcfc703084d640ea655e867305189c123f14b01e6559983f74b6e6102a08301527f229f287a64256a855c9d929b790c9dbb42a8c3eb3f3395ded7c4e9d82da9fefe6102c08301527f2244e298c1be9b8ea9f3eebf5516692d2d18950e8bcdaf66d2e54fcd9f6b7eec6102e08301526020826103008460086107d05a03fa82518116935050505095945050505050565b60405161038081016040526104e060008401356100a2565b6104ed818486888a610141565b8060005260206000f35b60008061061a866002806020026040519081016040528092919082600260200280828437600081840152601f19601f82011690508083019250505050505086600280602002604051908101604052809291906000905b828210156105a1578382604002016002806020026040519081016040528092919082600260200280828437600081840152601f19601f8201169050808301925050505050508152602001906001019061054d565b50505050866002806020026040519081016040528092919082600260200280828437600081840152601f19601f820116905080830192505050505050866001806020026040519081016040528092919082600160200280828437600081840152601f19601f8201169050808301925050505050506106ea565b90508061065c576040517f08c379a000000000000000000000000000000000000000000000000000000000815260040161065390610997565b60405180910390fd5b6000868686866040516020016106759493929190610a9f565b6040516020818303038152906040528051906020012090503373ffffffffffffffffffffffffffffffffffffffff167fa4b608d5bc20cd098913e8867c35f42efe2212ec0182f845e1d8fc70a7eef01583836040516106d5929190610aff565b60405180910390a28192505050949350505050565b60008060003073ffffffffffffffffffffffffffffffffffffffff168787878760405160240161071d9493929190610d54565b6040516020818303038152906040527f43753b4d000000000000000000000000000000000000000000000000000000007bffffffffffffffffffffffffffffffffffffffffffffffffffffffff19166020820180517bffffffffffffffffffffffffffffffffffffffffffffffffffffffff83818316178352505050506040516107a79190610e0c565b600060405180830381855afa9150503d80600081146107e2576040519150601f19603f3d011682016040523d82523d6000602084013e6107e7565b606091505b50915091508115806107fa575060208151105b1561080a57600092505050610823565b8080602001905181019061081e9190610e4f565b925050505b949350505050565b600080fd5b600080fd5b60008190508260206002028201111561085157610850610830565b5b92915050565b60008190508260406002028201111561087357610872610830565b5b92915050565b60008190508260206001028201111561089557610894610830565b5b92915050565b60008060008061012085870312156108b6576108b561082b565b5b60006108c487828801610835565b94505060406108d587828801610857565b93505060c06108e687828801610835565b9250506101006108f887828801610879565b91505092959194509250565b60008115159050919050565b61091981610904565b82525050565b60006020820190506109346000830184610910565b92915050565b600082825260208201905092915050565b7f496e76616c69642070726f6f6600000000000000000000000000000000000000600082015250565b6000610981600d8361093a565b915061098c8261094b565b602082019050919050565b600060208201905081810360008301526109b081610974565b9050919050565b82818337505050565b6109cc604083836109b7565b5050565b600060029050919050565b600081905092915050565b6000819050919050565b6109fc604083836109b7565b5050565b6000610a0c83836109f0565b60408301905092915050565b600082905092915050565b6000604082019050919050565b610a39816109d0565b610a4381846109db565b9250610a4e826109e6565b8060005b83811015610a8757610a648284610a18565b610a6e8782610a00565b9650610a7983610a23565b925050600181019050610a52565b505050505050565b610a9b602083836109b7565b5050565b600061012082019050610ab560008301876109c0565b610ac26040830186610a30565b610acf60c08301856109c0565b610add610100830184610a8f565b95945050505050565b6000819050919050565b610af981610ae6565b82525050565b6000604082019050610b146000830185610910565b610b216020830184610af0565b9392505050565b600060029050919050565b600081905092915050565b6000819050919050565b6000819050919050565b610b5b81610b48565b82525050565b6000610b6d8383610b52565b60208301905092915050565b6000602082019050919050565b610b8f81610b28565b610b998184610b33565b9250610ba482610b3e565b8060005b83811015610bd5578151610bbc8782610b61565b9650610bc783610b79565b925050600181019050610ba8565b505050505050565b600060029050919050565b6000819050919050565b600081905092915050565b610c0681610b28565b610c108184610bf2565b9250610c1b82610b3e565b8060005b83811015610c4c578151610c338782610b61565b9650610c3e83610b79565b925050600181019050610c1f565b505050505050565b6000610c608383610bfd565b60408301905092915050565b6000602082019050919050565b610c8281610bdd565b610c8c81846109db565b9250610c9782610be8565b8060005b83811015610cc8578151610caf8782610c54565b9650610cba83610c6c565b925050600181019050610c9b565b505050505050565b600060019050919050565b600081905092915050565b6000819050919050565b6000602082019050919050565b610d0681610cd0565b610d108184610cdb565b9250610d1b82610ce6565b8060005b83811015610d4c578151610d338782610b61565b9650610d3e83610cf0565b925050600181019050610d1f565b505050505050565b600061012082019050610d6a6000830187610b86565b610d776040830186610c79565b610d8460c0830185610b86565b610d92610100830184610cfd565b95945050505050565b600081519050919050565b600081905092915050565b60005b83811015610dcf578082015181840152602081019050610db4565b60008484015250505050565b6000610de682610d9b565b610df08185610da6565b9350610e00818560208601610db1565b80840191505092915050565b6000610e188284610ddb565b915081905092915050565b610e2c81610904565b8114610e3757600080fd5b50565b600081519050610e4981610e23565b92915050565b600060208284031215610e6557610e6461082b565b5b6000610e7384828501610e3a565b9150509291505056fea26469706673582212204ec507a74bfdc878283506274d43a2b877a5c7826419610ef972f5ba545afcf964736f6c63430008140033","opcodes":"PUSH1 0x80 PUSH1 0x40 MSTORE CALLVALUE DUP1 ISZERO PUSH2 0x10 JUMPI PUSH1 0x0 DUP1 REVERT JUMPDEST POP PUSH2 0xEB2 DUP1 PUSH2 0x20 PUSH1 0x0 CODECOPY PUSH1 0x0 RETURN INVALID PUSH1 0x80 PUSH1 0x40 MSTORE CALLVALUE DUP1 ISZERO PUSH2 0x10 JUMPI PUSH1 0x0 DUP1 REVERT JUMPDEST POP PUSH1 0x4 CALLDATASIZE LT PUSH2 0x36 JUMPI PUSH1 0x0 CALLDATALOAD PUSH1 0xE0 SHR DUP1 PUSH4 0x43753B4D EQ PUSH2 0x3B JUMPI DUP1 PUSH4 0xE91A8B02 EQ PUSH2 0x6B JUMPI JUMPDEST PUSH1 0x0 DUP1 REVERT JUMPDEST PUSH2 0x55 PUSH1 0x4 DUP1 CALLDATASIZE SUB DUP2 ADD SWAP1 PUSH2 0x50 SWAP2 SWAP1 PUSH2 0x89B JUMP JUMPDEST PUSH2 0x9B JUMP JUMPDEST PUSH1 0x40 MLOAD PUSH2 0x62 SWAP2 SWAP1 PUSH2 0x91F JUMP JUMPDEST PUSH1 0x40 MLOAD DUP1 SWAP2 SUB SWAP1 RETURN JUMPDEST PUSH2 0x85 PUSH1 0x4 DUP1 CALLDATASIZE SUB DUP2 ADD SWAP1 PUSH2 0x80 SWAP2 SWAP1 PUSH2 0x89B JUMP JUMPDEST PUSH2 0x4F7 JUMP JUMPDEST PUSH1 0x40 MLOAD PUSH2 0x92 SWAP2 SWAP1 PUSH2 0x91F JUMP JUMPDEST PUSH1 0x40 MLOAD DUP1 SWAP2 SUB SWAP1 RETURN JUMPDEST PUSH1 0x0 PUSH2 0x4C8 JUMP JUMPDEST PUSH32 0x30644E72E131A029B85045B68181585D2833E84879B9709143E1F593F0000001 DUP2 LT PUSH2 0xD3 JUMPI PUSH1 0x0 DUP1 MSTORE PUSH1 0x20 PUSH1 0x0 RETURN JUMPDEST POP JUMP JUMPDEST PUSH1 0x0 PUSH1 0x40 MLOAD DUP4 DUP2 MSTORE DUP5 PUSH1 0x20 DUP3 ADD MSTORE DUP6 PUSH1 0x40 DUP3 ADD MSTORE PUSH1 0x40 DUP2 PUSH1 0x60 DUP4 PUSH1 0x7 PUSH2 0x7D0 GAS SUB STATICCALL SWAP2 POP DUP2 PUSH2 0x109 JUMPI PUSH1 0x0 DUP1 MSTORE PUSH1 0x20 PUSH1 0x0 RETURN JUMPDEST DUP3 MLOAD PUSH1 0x40 DUP3 ADD MSTORE PUSH1 0x20 DUP4 ADD MLOAD PUSH1 0x60 DUP3 ADD MSTORE PUSH1 0x40 DUP4 PUSH1 0x80 DUP4 PUSH1 0x6 PUSH2 0x7D0 GAS SUB STATICCALL SWAP2 POP DUP2 PUSH2 0x139 JUMPI PUSH1 0x0 DUP1 MSTORE PUSH1 0x20 PUSH1 0x0 RETURN JUMPDEST POP POP POP POP POP POP JUMP JUMPDEST PUSH1 0x0 PUSH1 0x80 DUP7 ADD PUSH1 0x0 DUP8 ADD PUSH32 0x141D7C2E3CA96F73B5B9C4048DC1CA4B15FA5EA7739D8F49F91069C02236A302 DUP2 MSTORE PUSH32 0x29CB4A338D4917ACBCFD63B145752EE69B3985DDF8F18B59068DE03D03B248D9 PUSH1 0x20 DUP3 ADD MSTORE PUSH2 0x1E4 PUSH1 0x0 DUP9 ADD CALLDATALOAD PUSH32 0x19ACD0FC8C455D81A3551F830CC78E82FFE1D558352382BE204041E6CA8661D0 PUSH32 0x236CC4327867F454E63A716470C22839DD1CEF155F541A94FAEDD6FEB6D9A28B DUP5 PUSH2 0xD6 JUMP JUMPDEST DUP4 CALLDATALOAD DUP3 MSTORE PUSH32 0x30644E72E131A029B85045B68181585D97816A916871CA8D3C208C16D87CFD47 PUSH1 0x20 DUP6 ADD CALLDATALOAD PUSH32 0x30644E72E131A029B85045B68181585D97816A916871CA8D3C208C16D87CFD47 SUB MOD PUSH1 0x20 DUP4 ADD MSTORE DUP5 CALLDATALOAD PUSH1 0x40 DUP4 ADD MSTORE PUSH1 0x20 DUP6 ADD CALLDATALOAD PUSH1 0x60 DUP4 ADD MSTORE PUSH1 0x40 DUP6 ADD CALLDATALOAD PUSH1 0x80 DUP4 ADD MSTORE PUSH1 0x60 DUP6 ADD CALLDATALOAD PUSH1 0xA0 DUP4 ADD MSTORE PUSH32 0xFA97DBE05C01604F78E309FF166A3D1CA5A169AD7E4C273978B2D12951B3AA8 PUSH1 0xC0 DUP4 ADD MSTORE PUSH32 0x1CE3D36AC75C22CA880A3589453DD56D74EBCD3DC0D02BBD68B34D5D7950CA29 PUSH1 0xE0 DUP4 ADD MSTORE PUSH32 0x8854137860062E4AE212836201A5AFCFE3F37123650B07B4CCBBE81528D77B1 PUSH2 0x100 DUP4 ADD MSTORE PUSH32 0x61483DF5D4504F9F4C4D0DB42FC7FF28DCA2E621CEDBDDEF0FC1517BA360868 PUSH2 0x120 DUP4 ADD MSTORE PUSH32 0x234436EB026880FECD883256F20C9BF04145E8D2851134DB03FB0750A0EAAE3A PUSH2 0x140 DUP4 ADD MSTORE PUSH32 0x477051796D060FCCCE2DCB65437AD24C044E0EAD79119F3EB26F1AC3CE97B7B PUSH2 0x160 DUP4 ADD MSTORE PUSH1 0x0 DUP9 ADD MLOAD PUSH2 0x180 DUP4 ADD MSTORE PUSH1 0x20 PUSH1 0x0 ADD DUP9 ADD MLOAD PUSH2 0x1A0 DUP4 ADD MSTORE PUSH32 0x198E9393920D483A7260BFB731FB5D25F1AA493335A9E71297E485B7AEF312C2 PUSH2 0x1C0 DUP4 ADD MSTORE PUSH32 0x1800DEEF121F1E76426A00665E5C4479674322D4F75EDADD46DEBD5CD992F6ED PUSH2 0x1E0 DUP4 ADD MSTORE PUSH32 0x90689D0585FF075EC9E99AD690C3395BC4B313370B38EF355ACDADCD122975B PUSH2 0x200 DUP4 ADD MSTORE PUSH32 0x12C85EA5DB8C6DEB4AAB71808DCB408FE3D1E7690C43D37B4CE6CC0166FA7DAA PUSH2 0x220 DUP4 ADD MSTORE DUP6 CALLDATALOAD PUSH2 0x240 DUP4 ADD MSTORE PUSH1 0x20 DUP7 ADD CALLDATALOAD PUSH2 0x260 DUP4 ADD MSTORE PUSH32 0xE51E12B1544EDE4B6D389CF19BB428574E05284439892952FD29849923FBA26 PUSH2 0x280 DUP4 ADD MSTORE PUSH32 0x2FC6BF44A4FBCFC703084D640EA655E867305189C123F14B01E6559983F74B6E PUSH2 0x2A0 DUP4 ADD MSTORE PUSH32 0x229F287A64256A855C9D929B790C9DBB42A8C3EB3F3395DED7C4E9D82DA9FEFE PUSH2 0x2C0 DUP4 ADD MSTORE PUSH32 0x2244E298C1BE9B8EA9F3EEBF5516692D2D18950E8BCDAF66D2E54FCD9F6B7EEC PUSH2 0x2E0 DUP4 ADD MSTORE PUSH1 0x20 DUP3 PUSH2 0x300 DUP5 PUSH1 0x8 PUSH2 0x7D0 GAS SUB STATICCALL DUP3 MLOAD DUP2 AND SWAP4 POP POP POP POP SWAP6 SWAP5 POP POP POP POP POP JUMP JUMPDEST PUSH1 0x40 MLOAD PUSH2 0x380 DUP2 ADD PUSH1 0x40 MSTORE PUSH2 0x4E0 PUSH1 0x0 DUP5 ADD CALLDATALOAD PUSH2 0xA2 JUMP JUMPDEST PUSH2 0x4ED DUP2 DUP5 DUP7 DUP9 DUP11 PUSH2 0x141 JUMP JUMPDEST DUP1 PUSH1 0x0 MSTORE PUSH1 0x20 PUSH1 0x0 RETURN JUMPDEST PUSH1 0x0 DUP1 PUSH2 0x61A DUP7 PUSH1 0x2 DUP1 PUSH1 0x20 MUL PUSH1 0x40 MLOAD SWAP1 DUP2 ADD PUSH1 0x40 MSTORE DUP1 SWAP3 SWAP2 SWAP1 DUP3 PUSH1 0x2 PUSH1 0x20 MUL DUP1 DUP3 DUP5 CALLDATACOPY PUSH1 0x0 DUP2 DUP5 ADD MSTORE PUSH1 0x1F NOT PUSH1 0x1F DUP3 ADD AND SWAP1 POP DUP1 DUP4 ADD SWAP3 POP POP POP POP POP POP DUP7 PUSH1 0x2 DUP1 PUSH1 0x20 MUL PUSH1 0x40 MLOAD SWAP1 DUP2 ADD PUSH1 0x40 MSTORE DUP1 SWAP3 SWAP2 SWAP1 PUSH1 0x0 SWAP1 JUMPDEST DUP3 DUP3 LT ISZERO PUSH2 0x5A1 JUMPI DUP4 DUP3 PUSH1 0x40 MUL ADD PUSH1 0x2 DUP1 PUSH1 0x20 MUL PUSH1 0x40 MLOAD SWAP1 DUP2 ADD PUSH1 0x40 MSTORE DUP1 SWAP3 SWAP2 SWAP1 DUP3 PUSH1 0x2 PUSH1 0x20 MUL DUP1 DUP3 DUP5 CALLDATACOPY PUSH1 0x0 DUP2 DUP5 ADD MSTORE PUSH1 0x1F NOT PUSH1 0x1F DUP3 ADD AND SWAP1 POP DUP1 DUP4 ADD SWAP3 POP POP POP POP POP POP DUP2 MSTORE PUSH1 0x20 ADD SWAP1 PUSH1 0x1 ADD SWAP1 PUSH2 0x54D JUMP JUMPDEST POP POP POP POP DUP7 PUSH1 0x2 DUP1 PUSH1 0x20 MUL PUSH1 0x40 MLOAD SWAP1 DUP2 ADD PUSH1 0x40 MSTORE DUP1 SWAP3 SWAP2 SWAP1 DUP3 PUSH1 0x2 PUSH1 0x20 MUL DUP1 DUP3 DUP5 CALLDATACOPY PUSH1 0x0 DUP2 DUP5 ADD MSTORE PUSH1 0x1F NOT PUSH1 0x1F DUP3 ADD AND SWAP1 POP DUP1 DUP4 ADD SWAP3 POP POP POP POP POP POP DUP7 PUSH1 0x1 DUP1 PUSH1 0x20 MUL PUSH1 0x40 MLOAD SWAP1 DUP2 ADD PUSH1 0x40 MSTORE DUP1 SWAP3 SWAP2 SWAP1 DUP3 PUSH1 0x1 PUSH1 0x20 MUL DUP1 DUP3 DUP5 CALLDATACOPY PUSH1 0x0 DUP2 DUP5 ADD MSTORE PUSH1 0x1F NOT PUSH1 0x1F DUP3 ADD AND SWAP1 POP DUP1 DUP4 ADD SWAP3 POP POP POP POP POP POP PUSH2 0x6EA JUMP JUMPDEST SWAP1 POP DUP1 PUSH2 0x65C JUMPI PUSH1 0x40 MLOAD PUSH32 0x8C379A000000000000000000000000000000000000000000000000000000000 DUP2 MSTORE PUSH1 0x4 ADD PUSH2 0x653 SWAP1 PUSH2 0x997 JUMP JUMPDEST PUSH1 0x40 MLOAD DUP1 SWAP2 SUB SWAP1 REVERT JUMPDEST PUSH1 0x0 DUP7 DUP7 DUP7 DUP7 PUSH1 0x40 MLOAD PUSH1 0x20 ADD PUSH2 0x675 SWAP5 SWAP4 SWAP3 SWAP2 SWAP1 PUSH2 0xA9F JUMP JUMPDEST PUSH1 0x40 MLOAD PUSH1 0x20 DUP2 DUP4 SUB SUB DUP2 MSTORE SWAP1 PUSH1 0x40 MSTORE DUP1 MLOAD SWAP1 PUSH1 0x20 ADD KECCAK256 SWAP1 POP CALLER PUSH20 0xFFFFFFFFFFFFFFFFFFFFFFFFFFFFFFFFFFFFFFFF AND PUSH32 0xA4B608D5BC20CD098913E8867C35F42EFE2212EC0182F845E1D8FC70A7EEF015 DUP4 DUP4 PUSH1 0x40 MLOAD PUSH2 0x6D5 SWAP3 SWAP2 SWAP1 PUSH2 0xAFF JUMP JUMPDEST PUSH1 0x40 MLOAD DUP1 SWAP2 SUB SWAP1 LOG2 DUP2 SWAP3 POP POP POP SWAP5 SWAP4 POP POP POP POP JUMP JUMPDEST PUSH1 0x0 DUP1 PUSH1 0x0 ADDRESS PUSH20 0xFFFFFFFFFFFFFFFFFFFFFFFFFFFFFFFFFFFFFFFF AND DUP8 DUP8 DUP8 DUP8 PUSH1 0x40 MLOAD PUSH1 0x24 ADD PUSH2 0x71D SWAP5 SWAP4 SWAP3 SWAP2 SWAP1 PUSH2 0xD54 JUMP JUMPDEST PUSH1 0x40 MLOAD PUSH1 0x20 DUP2 DUP4 SUB SUB DUP2 MSTORE SWAP1 PUSH1 0x40 MSTORE PUSH32 0x43753B4D00000000000000000000000000000000000000000000000000000000 PUSH28 0xFFFFFFFFFFFFFFFFFFFFFFFFFFFFFFFFFFFFFFFFFFFFFFFFFFFFFFFF NOT AND PUSH1 0x20 DUP3 ADD DUP1 MLOAD PUSH28 0xFFFFFFFFFFFFFFFFFFFFFFFFFFFFFFFFFFFFFFFFFFFFFFFFFFFFFFFF DUP4 DUP2 DUP4 AND OR DUP4 MSTORE POP POP POP POP PUSH1 0x40 MLOAD PUSH2 0x7A7 SWAP2 SWAP1 PUSH2 0xE0C JUMP JUMPDEST PUSH1 0x0 PUSH1 0x40 MLOAD DUP1 DUP4 SUB DUP2 DUP6 GAS STATICCALL SWAP2 POP POP RETURNDATASIZE DUP1 PUSH1 0x0 DUP2 EQ PUSH2 0x7E2 JUMPI PUSH1 0x40 MLOAD SWAP2 POP PUSH1 0x1F NOT PUSH1 0x3F RETURNDATASIZE ADD AND DUP3 ADD PUSH1 0x40 MSTORE RETURNDATASIZE DUP3 MSTORE RETURNDATASIZE PUSH1 0x0 PUSH1 0x20 DUP5 ADD RETURNDATACOPY PUSH2 0x7E7 JUMP JUMPDEST PUSH1 0x60 SWAP2 POP JUMPDEST POP SWAP2 POP SWAP2 POP DUP2 ISZERO DUP1 PUSH2 0x7FA JUMPI POP PUSH1 0x20 DUP2 MLOAD LT JUMPDEST ISZERO PUSH2 0x80A JUMPI PUSH1 0x0 SWAP3 POP POP POP PUSH2 0x823 JUMP JUMPDEST DUP1 DUP1 PUSH1 0x20 ADD SWAP1 MLOAD DUP2 ADD SWAP1 PUSH2 0x81E SWAP2 SWAP1 PUSH2 0xE4F JUMP JUMPDEST SWAP3 POP POP POP JUMPDEST SWAP5 SWAP4 POP POP POP POP JUMP JUMPDEST PUSH1 0x0 DUP1 REVERT JUMPDEST PUSH1 0x0 DUP1 REVERT JUMPDEST PUSH1 0x0 DUP2 SWAP1 POP DUP3 PUSH1 0x20 PUSH1 0x2 MUL DUP3 ADD GT ISZERO PUSH2 0x851 JUMPI PUSH2 0x850 PUSH2 0x830 JUMP JUMPDEST JUMPDEST SWAP3 SWAP2 POP POP JUMP JUMPDEST PUSH1 0x0 DUP2 SWAP1 POP DUP3 PUSH1 0x40 PUSH1 0x2 MUL DUP3 ADD GT ISZERO PUSH2 0x873 JUMPI PUSH2 0x872 PUSH2 0x830 JUMP JUMPDEST JUMPDEST SWAP3 SWAP2 POP POP JUMP JUMPDEST PUSH1 0x0 DUP2 SWAP1 POP DUP3 PUSH1 0x20 PUSH1 0x1 MUL DUP3 ADD GT ISZERO PUSH2 0x895 JUMPI PUSH2 0x894 PUSH2 0x830 JUMP JUMPDEST JUMPDEST SWAP3 SWAP2 POP POP JUMP JUMPDEST PUSH1 0x0 DUP1 PUSH1 0x0 DUP1 PUSH2 0x120 DUP6 DUP8 SUB SLT ISZERO PUSH2 0x8B6 JUMPI PUSH2 0x8B5 PUSH2 0x82B JUMP JUMPDEST JUMPDEST PUSH1 0x0 PUSH2 0x8C4 DUP8 DUP3 DUP9 ADD PUSH2 0x835 JUMP JUMPDEST SWAP5 POP POP PUSH1 0x40 PUSH2 0x8D5 DUP8 DUP3 DUP9 ADD PUSH2 0x857 JUMP JUMPDEST SWAP4 POP POP PUSH1 0xC0 PUSH2 0x8E6 DUP8 DUP3 DUP9 ADD PUSH2 0x835 JUMP JUMPDEST SWAP3 POP POP PUSH2 0x100 PUSH2 0x8F8 DUP8 DUP3 DUP9 ADD PUSH2 0x879 JUMP JUMPDEST SWAP2 POP POP SWAP3 SWAP6 SWAP2 SWAP5 POP SWAP3 POP JUMP JUMPDEST PUSH1 0x0 DUP2 ISZERO ISZERO SWAP1 POP SWAP2 SWAP1 POP JUMP JUMPDEST PUSH2 0x919 DUP2 PUSH2 0x904 JUMP JUMPDEST DUP3 MSTORE POP POP JUMP JUMPDEST PUSH1 0x0 PUSH1 0x20 DUP3 ADD SWAP1 POP PUSH2 0x934 PUSH1 0x0 DUP4 ADD DUP5 PUSH2 0x910 JUMP JUMPDEST SWAP3 SWAP2 POP POP JUMP JUMPDEST PUSH1 0x0 DUP3 DUP3 MSTORE PUSH1 0x20 DUP3 ADD SWAP1 POP SWAP3 SWAP2 POP POP JUMP JUMPDEST PUSH32 0x496E76616C69642070726F6F6600000000000000000000000000000000000000 PUSH1 0x0 DUP3 ADD MSTORE POP JUMP JUMPDEST PUSH1 0x0 PUSH2 0x981 PUSH1 0xD DUP4 PUSH2 0x93A JUMP JUMPDEST SWAP2 POP PUSH2 0x98C DUP3 PUSH2 0x94B JUMP JUMPDEST PUSH1 0x20 DUP3 ADD SWAP1 POP SWAP2 SWAP1 POP JUMP JUMPDEST PUSH1 0x0 PUSH1 0x20 DUP3 ADD SWAP1 POP DUP2 DUP2 SUB PUSH1 0x0 DUP4 ADD MSTORE PUSH2 0x9B0 DUP2 PUSH2 0x974 JUMP JUMPDEST SWAP1 POP SWAP2 SWAP1 POP JUMP JUMPDEST DUP3 DUP2 DUP4 CALLDATACOPY POP POP POP JUMP JUMPDEST PUSH2 0x9CC PUSH1 0x40 DUP4 DUP4 PUSH2 0x9B7 JUMP JUMPDEST POP POP JUMP JUMPDEST PUSH1 0x0 PUSH1 0x2 SWAP1 POP SWAP2 SWAP1 POP JUMP JUMPDEST PUSH1 0x0 DUP2 SWAP1 POP SWAP3 SWAP2 POP POP JUMP JUMPDEST PUSH1 0x0 DUP2 SWAP1 POP SWAP2 SWAP1 POP JUMP JUMPDEST PUSH2 0x9FC PUSH1 0x40 DUP4 DUP4 PUSH2 0x9B7 JUMP JUMPDEST POP POP JUMP JUMPDEST PUSH1 0x0 PUSH2 0xA0C DUP4 DUP4 PUSH2 0x9F0 JUMP JUMPDEST PUSH1 0x40 DUP4 ADD SWAP1 POP SWAP3 SWAP2 POP POP JUMP JUMPDEST PUSH1 0x0 DUP3 SWAP1 POP SWAP3 SWAP2 POP POP JUMP JUMPDEST PUSH1 0x0 PUSH1 0x40 DUP3 ADD SWAP1 POP SWAP2 SWAP1 POP JUMP JUMPDEST PUSH2 0xA39 DUP2 PUSH2 0x9D0 JUMP JUMPDEST PUSH2 0xA43 DUP2 DUP5 PUSH2 0x9DB JUMP JUMPDEST SWAP3 POP PUSH2 0xA4E DUP3 PUSH2 0x9E6 JUMP JUMPDEST DUP1 PUSH1 0x0 JUMPDEST DUP4 DUP2 LT ISZERO PUSH2 0xA87 JUMPI PUSH2 0xA64 DUP3 DUP5 PUSH2 0xA18 JUMP JUMPDEST PUSH2 0xA6E DUP8 DUP3 PUSH2 0xA00 JUMP JUMPDEST SWAP7 POP PUSH2 0xA79 DUP4 PUSH2 0xA23 JUMP JUMPDEST SWAP3 POP POP PUSH1 0x1 DUP2 ADD SWAP1 POP PUSH2 0xA52 JUMP JUMPDEST POP POP POP POP POP POP JUMP JUMPDEST PUSH2 0xA9B PUSH1 0x20 DUP4 DUP4 PUSH2 0x9B7 JUMP JUMPDEST POP POP JUMP JUMPDEST PUSH1 0x0 PUSH2 0x120 DUP3 ADD SWAP1 POP PUSH2 0xAB5 PUSH1 0x0 DUP4 ADD DUP8 PUSH2 0x9C0 JUMP JUMPDEST PUSH2 0xAC2 PUSH1 0x40 DUP4 ADD DUP7 PUSH2 0xA30 JUMP JUMPDEST PUSH2 0xACF PUSH1 0xC0 DUP4 ADD DUP6 PUSH2 0x9C0 JUMP JUMPDEST PUSH2 0xADD PUSH2 0x100 DUP4 ADD DUP5 PUSH2 0xA8F JUMP JUMPDEST SWAP6 SWAP5 POP POP POP POP POP JUMP JUMPDEST PUSH1 0x0 DUP2 SWAP1 POP SWAP2 SWAP1 POP JUMP JUMPDEST PUSH2 0xAF9 DUP2 PUSH2 0xAE6 JUMP JUMPDEST DUP3 MSTORE POP POP JUMP JUMPDEST PUSH1 0x0 PUSH1 0x40 DUP3 ADD SWAP1 POP PUSH2 0xB14 PUSH1 0x0 DUP4 ADD DUP6 PUSH2 0x910 JUMP JUMPDEST PUSH2 0xB21 PUSH1 0x20 DUP4 ADD DUP5 PUSH2 0xAF0 JUMP JUMPDEST SWAP4 SWAP3 POP POP POP JUMP JUMPDEST PUSH1 0x0 PUSH1 0x2 SWAP1 POP SWAP2 SWAP1 POP JUMP JUMPDEST PUSH1 0x0 DUP2 SWAP1 POP SWAP3 SWAP2 POP POP JUMP JUMPDEST PUSH1 0x0 DUP2 SWAP1 POP SWAP2 SWAP1 POP JUMP JUMPDEST PUSH1 0x0 DUP2 SWAP1 POP SWAP2 SWAP1 POP JUMP JUMPDEST PUSH2 0xB5B DUP2 PUSH2 0xB48 JUMP JUMPDEST DUP3 MSTORE POP POP JUMP JUMPDEST PUSH1 0x0 PUSH2 0xB6D DUP4 DUP4 PUSH2 0xB52 JUMP JUMPDEST PUSH1 0x20 DUP4 ADD SWAP1 POP SWAP3 SWAP2 POP POP JUMP JUMPDEST PUSH1 0x0 PUSH1 0x20 DUP3 ADD SWAP1 POP SWAP2 SWAP1 POP JUMP JUMPDEST PUSH2 0xB8F DUP2 PUSH2 0xB28 JUMP JUMPDEST PUSH2 0xB99 DUP2 DUP5 PUSH2 0xB33 JUMP JUMPDEST SWAP3 POP PUSH2 0xBA4 DUP3 PUSH2 0xB3E JUMP JUMPDEST DUP1 PUSH1 0x0 JUMPDEST DUP4 DUP2 LT ISZERO PUSH2 0xBD5 JUMPI DUP2 MLOAD PUSH2 0xBBC DUP8 DUP3 PUSH2 0xB61 JUMP JUMPDEST SWAP7 POP PUSH2 0xBC7 DUP4 PUSH2 0xB79 JUMP JUMPDEST SWAP3 POP POP PUSH1 0x1 DUP2 ADD SWAP1 POP PUSH2 0xBA8 JUMP JUMPDEST POP POP POP POP POP POP JUMP JUMPDEST PUSH1 0x0 PUSH1 0x2 SWAP1 POP SWAP2 SWAP1 POP JUMP JUMPDEST PUSH1 0x0 DUP2 SWAP1 POP SWAP2 SWAP1 POP JUMP JUMPDEST PUSH1 0x0 DUP2 SWAP1 POP SWAP3 SWAP2 POP POP JUMP JUMPDEST PUSH2 0xC06 DUP2 PUSH2 0xB28 JUMP JUMPDEST PUSH2 0xC10 DUP2 DUP5 PUSH2 0xBF2 JUMP JUMPDEST SWAP3 POP PUSH2 0xC1B DUP3 PUSH2 0xB3E JUMP JUMPDEST DUP1 PUSH1 0x0 JUMPDEST DUP4 DUP2 LT ISZERO PUSH2 0xC4C JUMPI DUP2 MLOAD PUSH2 0xC33 DUP8 DUP3 PUSH2 0xB61 JUMP JUMPDEST SWAP7 POP PUSH2 0xC3E DUP4 PUSH2 0xB79 JUMP JUMPDEST SWAP3 POP POP PUSH1 0x1 DUP2 ADD SWAP1 POP PUSH2 0xC1F JUMP JUMPDEST POP POP POP POP POP POP JUMP JUMPDEST PUSH1 0x0 PUSH2 0xC60 DUP4 DUP4 PUSH2 0xBFD JUMP JUMPDEST PUSH1 0x40 DUP4 ADD SWAP1 POP SWAP3 SWAP2 POP POP JUMP JUMPDEST PUSH1 0x0 PUSH1 0x20 DUP3 ADD SWAP1 POP SWAP2 SWAP1 POP JUMP JUMPDEST PUSH2 0xC82 DUP2 PUSH2 0xBDD JUMP JUMPDEST PUSH2 0xC8C DUP2 DUP5 PUSH2 0x9DB JUMP JUMPDEST SWAP3 POP PUSH2 0xC97 DUP3 PUSH2 0xBE8 JUMP JUMPDEST DUP1 PUSH1 0x0 JUMPDEST DUP4 DUP2 LT ISZERO PUSH2 0xCC8 JUMPI DUP2 MLOAD PUSH2 0xCAF DUP8 DUP3 PUSH2 0xC54 JUMP JUMPDEST SWAP7 POP PUSH2 0xCBA DUP4 PUSH2 0xC6C JUMP JUMPDEST SWAP3 POP POP PUSH1 0x1 DUP2 ADD SWAP1 POP PUSH2 0xC9B JUMP JUMPDEST POP POP POP POP POP POP JUMP JUMPDEST PUSH1 0x0 PUSH1 0x1 SWAP1 POP SWAP2 SWAP1 POP JUMP JUMPDEST PUSH1 0x0 DUP2 SWAP1 POP SWAP3 SWAP2 POP POP JUMP JUMPDEST PUSH1 0x0 DUP2 SWAP1 POP SWAP2 SWAP1 POP JUMP JUMPDEST PUSH1 0x0 PUSH1 0x20 DUP3 ADD SWAP1 POP SWAP2 SWAP1 POP JUMP JUMPDEST PUSH2 0xD06 DUP2 PUSH2 0xCD0 JUMP JUMPDEST PUSH2 0xD10 DUP2 DUP5 PUSH2 0xCDB JUMP JUMPDEST SWAP3 POP PUSH2 0xD1B DUP3 PUSH2 0xCE6 JUMP JUMPDEST DUP1 PUSH1 0x0 JUMPDEST DUP4 DUP2 LT ISZERO PUSH2 0xD4C JUMPI DUP2 MLOAD PUSH2 0xD33 DUP8 DUP3 PUSH2 0xB61 JUMP JUMPDEST SWAP7 POP PUSH2 0xD3E DUP4 PUSH2 0xCF0 JUMP JUMPDEST SWAP3 POP POP PUSH1 0x1 DUP2 ADD SWAP1 POP PUSH2 0xD1F JUMP JUMPDEST POP POP POP POP POP POP JUMP JUMPDEST PUSH1 0x0 PUSH2 0x120 DUP3 ADD SWAP1 POP PUSH2 0xD6A PUSH1 0x0 DUP4 ADD DUP8 PUSH2 0xB86 JUMP JUMPDEST PUSH2 0xD77 PUSH1 0x40 DUP4 ADD DUP7 PUSH2 0xC79 JUMP JUMPDEST PUSH2 0xD84 PUSH1 0xC0 DUP4 ADD DUP6 PUSH2 0xB86 JUMP JUMPDEST PUSH2 0xD92 PUSH2 0x100 DUP4 ADD DUP5 PUSH2 0xCFD JUMP JUMPDEST SWAP6 SWAP5 POP POP POP POP POP JUMP JUMPDEST PUSH1 0x0 DUP2 MLOAD SWAP1 POP SWAP2 SWAP1 POP JUMP JUMPDEST PUSH1 0x0 DUP2 SWAP1 POP SWAP3 SWAP2 POP POP JUMP JUMPDEST PUSH1 0x0 JUMPDEST DUP4 DUP2 LT ISZERO PUSH2 0xDCF JUMPI DUP1 DUP3 ADD MLOAD DUP2 DUP5 ADD MSTORE PUSH1 0x20 DUP2 ADD SWAP1 POP PUSH2 0xDB4 JUMP JUMPDEST PUSH1 0x0 DUP5 DUP5 ADD MSTORE POP POP POP POP JUMP JUMPDEST PUSH1 0x0 PUSH2 0xDE6 DUP3 PUSH2 0xD9B JUMP JUMPDEST PUSH2 0xDF0 DUP2 DUP6 PUSH2 0xDA6 JUMP JUMPDEST SWAP4 POP PUSH2 0xE00 DUP2 DUP6 PUSH1 0x20 DUP7 ADD PUSH2 0xDB1 JUMP JUMPDEST DUP1 DUP5 ADD SWAP2 POP POP SWAP3 SWAP2 POP POP JUMP JUMPDEST PUSH1 0x0 PUSH2 0xE18 DUP3 DUP5 PUSH2 0xDDB JUMP JUMPDEST SWAP2 POP DUP2 SWAP1 POP SWAP3 SWAP2 POP POP JUMP JUMPDEST PUSH2 0xE2C DUP2 PUSH2 0x904 JUMP JUMPDEST DUP2 EQ PUSH2 0xE37 JUMPI PUSH1 0x0 DUP1 REVERT JUMPDEST POP JUMP JUMPDEST PUSH1 0x0 DUP2 MLOAD SWAP1 POP PUSH2 0xE49 DUP2 PUSH2 0xE23 JUMP JUMPDEST SWAP3 SWAP2 POP POP JUMP JUMPDEST PUSH1 0x0 PUSH1 0x20 DUP3 DUP5 SUB SLT ISZERO PUSH2 0xE65 JUMPI PUSH2 0xE64 PUSH2 0x82B JUMP JUMPDEST JUMPDEST PUSH1 0x0 PUSH2 0xE73 DUP5 DUP3 DUP6 ADD PUSH2 0xE3A JUMP JUMPDEST SWAP2 POP POP SWAP3 SWAP2 POP POP JUMP INVALID LOG2 PUSH5 0x6970667358 0x22 SLT KECCAK256 0x4E 0xC5 SMOD 0xA7 0x4B REVERT 0xC8 PUSH25 0x283506274D43A2B877A5C7826419610EF972F5BA545AFCF964 PUSH20 0x6F6C634300081400330000000000000000000000 "},"methodIdentifiers":{"submitTallyProof(uint256[2],uint256[2][2],uint256[2],uint256[1])":"e91a8b02","verifyProof(uint256[2],uint256[2][2],uint256[2],uint256[1])":"43753b4d"}}}}}