{
  "_format": "hh-sol-artifact-1",
  "contractName": "E_Voting",
  "sourceName": "contracts/E_Voting.sol",
  "abi": [
    {
      "inputs": [],
      "stateMutability": "nonpayable",
      "type": "constructor"
    },
    {
      "anonymous": false,
      "inputs": [
        {
          "indexed": false,
          "internalType": "uint256[]",
          "name": "counts",
          "type": "uint256[]"
        }
      ],
      "name": "AllResultsRevealed",
      "type": "event"
    },
    {
      "anonymous": false,
      "inputs": [],
      "name": "AllTrusteesAgreed",
      "type": "event"
    },
    {
      "anonymous": false,
      "inputs": [
        {
          "indexed": false,
          "internalType": "uint256",
          "name": "id",
          "type": "uint256"
        },
        {
          "indexed": false,
          "internalType": "string",
          "name": "name",
          "type": "string"
        }
      ],
      "name": "CandidateAdded",
      "type": "event"
    },
    {
      "anonymous": false,
      "inputs": [
        {
          "indexed": true,
          "internalType": "uint256",
          "name": "candidateId",
          "type": "uint256"
        },
        {
          "indexed": false,
          "internalType": "uint256[2]",
          "name": "C1_total",
          "type": "uint256[2]"
        },
        {
          "indexed": false,
          "internalType": "uint256[2]",
          "name": "C2_total",
          "type": "uint256[2]"
        }
      ],
      "name": "CipherTotalPublished",
      "type": "event"
    },
    {
      "anonymous": false,
      "inputs": [
        {
          "indexed": false,
          "internalType": "string",
          "name": "electionId",
          "type": "string"
        },
        {
          "indexed": false,
          "internalType": "string",
          "name": "name",
          "type": "string"
        }
      ],
      "name": "ElectionCreated",
      "type": "event"
    },
    {
      "anonymous": false,
      "inputs": [],
      "name": "ElectionEnded",
      "type": "event"
    },
    {
      "anonymous": false,
      "inputs": [
        {
          "indexed": false,
          "internalType": "bytes",
          "name": "epk",
          "type": "bytes"
        }
      ],
      "name": "EpkPublished",
      "type": "event"
    },
    {
      "anonymous": false,
      "inputs": [
        {
          "indexed": false,
          "internalType": "bytes32",
          "name": "hashAllOnChain",
          "type": "bytes32"
        }
      ],
      "name": "HashAllOnChainPublished",
      "type": "event"
    },
    {
      "anonymous": false,
      "inputs": [
        {
          "indexed": false,
          "internalType": "bytes32",
          "name": "root",
          "type": "bytes32"
        }
      ],
      "name": "MerkleRootUpdated",
      "type": "event"
    },
    {
      "anonymous": false,
      "inputs": [
        {
          "indexed": false,
          "internalType": "address",
          "name": "trustee",
          "type": "address"
        }
      ],
      "name": "PartialDecryptionFailed",
      "type": "event"
    },
    {
      "anonymous": false,
      "inputs": [
        {
          "indexed": true,
          "internalType": "address",
          "name": "trustee",
          "type": "address"
        },
        {
          "indexed": false,
          "internalType": "uint256[2][]",
          "name": "D_points",
          "type": "uint256[2][]"
        }
      ],
      "name": "PartialDecryptionSubmitted",
      "type": "event"
    },
    {
      "anonymous": false,
      "inputs": [
        {
          "indexed": true,
          "internalType": "address",
          "name": "trustee",
          "type": "address"
        }
      ],
      "name": "PartialDecryptionVerified",
      "type": "event"
    },
    {
      "anonymous": false,
      "inputs": [
        {
          "indexed": true,
          "internalType": "uint256",
          "name": "candidateId",
          "type": "uint256"
        },
        {
          "indexed": false,
          "internalType": "uint256",
          "name": "voteCount",
          "type": "uint256"
        }
      ],
      "name": "ResultRevealed",
      "type": "event"
    },
    {
      "anonymous": false,
      "inputs": [
        {
          "indexed": true,
          "internalType": "address",
          "name": "trustee",
          "type": "address"
        }
      ],
      "name": "TrusteeRegistered",
      "type": "event"
    },
    {
      "anonymous": false,
      "inputs": [
        {
          "indexed": true,
          "internalType": "bytes32",
          "name": "nullifier",
          "type": "bytes32"
        },
        {
          "indexed": true,
          "internalType": "bytes32",
          "name": "hashCipher",
          "type": "bytes32"
        },
        {
          "indexed": false,
          "internalType": "string",
          "name": "cid",
          "type": "string"
        }
      ],
      "name": "VotePublished",
      "type": "event"
    },
    {
      "inputs": [
        {
          "internalType": "string",
          "name": "_name",
          "type": "string"
        }
      ],
      "name": "addCandidate",
      "outputs": [],
      "stateMutability": "nonpayable",
      "type": "function"
    },
    {
      "inputs": [],
      "name": "admin",
      "outputs": [
        {
          "internalType": "address",
          "name": "",
          "type": "address"
        }
      ],
      "stateMutability": "view",
      "type": "function"
    },
    {
      "inputs": [],
      "name": "aggregator",
      "outputs": [
        {
          "internalType": "address",
          "name": "",
          "type": "address"
        }
      ],
      "stateMutability": "view",
      "type": "function"
    },
    {
      "inputs": [
        {
          "internalType": "uint256",
          "name": "",
          "type": "uint256"
        }
      ],
      "name": "candidates",
      "outputs": [
        {
          "internalType": "uint256",
          "name": "id",
          "type": "uint256"
        },
        {
          "internalType": "string",
          "name": "name",
          "type": "string"
        },
        {
          "internalType": "uint256",
          "name": "voteCount",
          "type": "uint256"
        }
      ],
      "stateMutability": "view",
      "type": "function"
    },
    {
      "inputs": [],
      "name": "endElection",
      "outputs": [],
      "stateMutability": "nonpayable",
      "type": "function"
    },
    {
      "inputs": [],
      "name": "epk",
      "outputs": [
        {
          "internalType": "bytes",
          "name": "",
          "type": "bytes"
        }
      ],
      "stateMutability": "view",
      "type": "function"
    },
    {
      "inputs": [],
      "name": "getCandidateCount",
      "outputs": [
        {
          "internalType": "uint256",
          "name": "",
          "type": "uint256"
        }
      ],
      "stateMutability": "view",
      "type": "function"
    },
    {
      "inputs": [
        {
          "internalType": "address",
          "name": "",
          "type": "address"
        }
      ],
      "name": "hasPublished",
      "outputs": [
        {
          "internalType": "bool",
          "name": "",
          "type": "bool"
        }
      ],
      "stateMutability": "view",
      "type": "function"
    },
    {
      "inputs": [],
      "name": "hashAllOnChain",
      "outputs": [
        {
          "internalType": "bytes32",
          "name": "",
          "type": "bytes32"
        }
      ],
      "stateMutability": "view",
      "type": "function"
    },
    {
      "inputs": [],
      "name": "info",
      "outputs": [
        {
          "internalType": "string",
          "name": "electionId",
          "type": "string"
        },
        {
          "internalType": "string",
          "name": "name",
          "type": "string"
        },
        {
          "internalType": "uint256",
          "name": "startDate",
          "type": "uint256"
        },
        {
          "internalType": "uint256",
          "name": "endDate",
          "type": "uint256"
        },
        {
          "internalType": "enum E_Voting.ElectionStatus",
          "name": "status",
          "type": "uint8"
        },
        {
          "internalType": "bytes32",
          "name": "merkleRoot",
          "type": "bytes32"
        }
      ],
      "stateMutability": "view",
      "type": "function"
    },
    {
      "inputs": [
        {
          "internalType": "bytes32",
          "name": "",
          "type": "bytes32"
        }
      ],
      "name": "isNullifierUsed",
      "outputs": [
        {
          "internalType": "bool",
          "name": "",
          "type": "bool"
        }
      ],
      "stateMutability": "view",
      "type": "function"
    },
    {
      "inputs": [
        {
          "internalType": "address",
          "name": "",
          "type": "address"
        }
      ],
      "name": "isTrustee",
      "outputs": [
        {
          "internalType": "bool",
          "name": "",
          "type": "bool"
        }
      ],
      "stateMutability": "view",
      "type": "function"
    },
    {
      "inputs": [
        {
          "internalType": "address",
          "name": "",
          "type": "address"
        }
      ],
      "name": "lastVerifyPassed",
      "outputs": [
        {
          "internalType": "bool",
          "name": "",
          "type": "bool"
        }
      ],
      "stateMutability": "view",
      "type": "function"
    },
    {
      "inputs": [],
      "name": "minRequired",
      "outputs": [
        {
          "internalType": "uint256",
          "name": "",
          "type": "uint256"
        }
      ],
      "stateMutability": "view",
      "type": "function"
    },
    {
      "inputs": [
        {
          "internalType": "uint256[2][]",
          "name": "C1_list",
          "type": "uint256[2][]"
        },
        {
          "internalType": "uint256[2][]",
          "name": "C2_list",
          "type": "uint256[2][]"
        }
      ],
      "name": "publishAllCipherTotals",
      "outputs": [],
      "stateMutability": "nonpayable",
      "type": "function"
    },
    {
      "inputs": [
        {
          "internalType": "bytes",
          "name": "_epk",
          "type": "bytes"
        }
      ],
      "name": "publishEpk",
      "outputs": [],
      "stateMutability": "nonpayable",
      "type": "function"
    },
    {
      "inputs": [
        {
          "internalType": "bytes32",
          "name": "_hashAllOnChain",
          "type": "bytes32"
        }
      ],
      "name": "publishHashAllOnChain",
      "outputs": [],
      "stateMutability": "nonpayable",
      "type": "function"
    },
    {
      "inputs": [
        {
          "internalType": "uint256[2][]",
          "name": "D_points",
          "type": "uint256[2][]"
        }
      ],
      "name": "publishPartialDecryption",
      "outputs": [],
      "stateMutability": "nonpayable",
      "type": "function"
    },
    {
      "inputs": [
        {
          "internalType": "address[3]",
          "name": "_trustees",
          "type": "address[3]"
        }
      ],
      "name": "registerTrustees",
      "outputs": [],
      "stateMutability": "nonpayable",
      "type": "function"
    },
    {
      "inputs": [],
      "name": "resultRevealed",
      "outputs": [
        {
          "internalType": "bool",
          "name": "",
          "type": "bool"
        }
      ],
      "stateMutability": "view",
      "type": "function"
    },
    {
      "inputs": [
        {
          "internalType": "uint256[]",
          "name": "counts",
          "type": "uint256[]"
        }
      ],
      "name": "revealResults",
      "outputs": [],
      "stateMutability": "nonpayable",
      "type": "function"
    },
    {
      "inputs": [
        {
          "internalType": "address",
          "name": "_aggregator",
          "type": "address"
        }
      ],
      "name": "setAggregator",
      "outputs": [],
      "stateMutability": "nonpayable",
      "type": "function"
    },
    {
      "inputs": [
        {
          "internalType": "string",
          "name": "_id",
          "type": "string"
        },
        {
          "internalType": "string",
          "name": "_name",
          "type": "string"
        },
        {
          "internalType": "uint256",
          "name": "_start",
          "type": "uint256"
        },
        {
          "internalType": "uint256",
          "name": "_end",
          "type": "uint256"
        }
      ],
      "name": "setElectionInfo",
      "outputs": [],
      "stateMutability": "nonpayable",
      "type": "function"
    },
    {
      "inputs": [
        {
          "internalType": "bytes32",
          "name": "_root",
          "type": "bytes32"
        }
      ],
      "name": "setMerkleRoot",
      "outputs": [],
      "stateMutability": "nonpayable",
      "type": "function"
    },
    {
      "inputs": [
        {
          "internalType": "bytes32",
          "name": "_nullifier",
          "type": "bytes32"
        },
        {
          "internalType": "bytes32",
          "name": "_hashCipher",
          "type": "bytes32"
        },
        {
          "internalType": "string",
          "name": "_cid",
          "type": "string"
        }
      ],
      "name": "submitVote",
      "outputs": [],
      "stateMutability": "nonpayable",
      "type": "function"
    },
    {
      "inputs": [],
      "name": "thresholdCount",
      "outputs": [
        {
          "internalType": "uint256",
          "name": "",
          "type": "uint256"
        }
      ],
      "stateMutability": "view",
      "type": "function"
    },
    {
      "inputs": [
        {
          "internalType": "address",
          "name": "",
          "type": "address"
        }
      ],
      "name": "trusteeID",
      "outputs": [
        {
          "internalType": "uint256",
          "name": "",
          "type": "uint256"
        }
      ],
      "stateMutability": "view",
      "type": "function"
    },
    {
      "inputs": [
        {
          "internalType": "uint256[2]",
          "name": "pA",
          "type": "uint256[2]"
        },
        {
          "internalType": "uint256[2][2]",
          "name": "pB",
          "type": "uint256[2][2]"
        },
        {
          "internalType": "uint256[2]",
          "name": "pC",
          "type": "uint256[2]"
        },
        {
          "internalType": "uint256[1]",
          "name": "pubSignals",
          "type": "uint256[1]"
        }
      ],
      "name": "verifyPartialProof",
      "outputs": [],
      "stateMutability": "nonpayable",
      "type": "function"
    },
    {
      "inputs": [
        {
          "internalType": "uint256[2]",
          "name": "_pA",
          "type": "uint256[2]"
        },
        {
          "internalType": "uint256[2][2]",
          "name": "_pB",
          "type": "uint256[2][2]"
        },
        {
          "internalType": "uint256[2]",
          "name": "_pC",
          "type": "uint256[2]"
        },
        {
          "internalType": "uint256[1]",
          "name": "_pubSignals",
          "type": "uint256[1]"
        }
      ],
      "name": "verifyProof",
      "outputs": [
        {
          "internalType": "bool",
          "name": "",
          "type": "bool"
        }
      ],
      "stateMutability": "view",
      "type": "function"
    }
  ],
  "bytecode": "0x608060405234801561001057600080fd5b50336000806101000a81548173ffffffffffffffffffffffffffffffffffffffff021916908373ffffffffffffffffffffffffffffffffffffffff160217905550614068806100606000396000f3fe608060405234801561001057600080fd5b50600436106101cf5760003560e01c8063370158ea11610104578063872d9e6e116100a2578063d8617a6711610071578063d8617a671461050d578063e447521314610529578063f851a44014610559578063f9120af614610577576101cf565b8063872d9e6e14610473578063ab989f55146104a3578063baacc5bd146104c1578063c784cd17146104dd576101cf565b8063462e91ec116100de578063462e91ec1461041357806359f784681461042f5780636604bf03146104395780637cb6475914610457576101cf565b8063370158ea146103a45780633a690dae146103c757806343753b4d146103e3576101cf565b806322dc7b4c1161017157806329a6e55d1161014b57806329a6e55d1461031c57806330a56347146103385780633477ee2e14610356578063368f851314610388576101cf565b806322dc7b4c146102b0578063245a7bfc146102e0578063251060d6146102fe576101cf565b806315aaa880116101ad57806315aaa8801461022c578063168e917a1461025c5780631bdf06f71461027857806322c04fa114610294576101cf565b80630230b8af146101d4578063052497c6146101f257806313e26d581461020e575b600080fd5b6101dc610593565b6040516101e991906124dd565b60405180910390f35b61020c60048036038101906102079190612688565b6105a6565b005b610216610735565b6040516102239190612736565b60405180910390f35b610246600480360381019061024191906127af565b61073a565b6040516102539190612736565b60405180910390f35b61027660048036038101906102719190612812565b610752565b005b610292600480360381019061028d919061289f565b610868565b005b6102ae60048036038101906102a99190612976565b6109de565b005b6102ca60048036038101906102c59190612812565b610bb3565b6040516102d791906124dd565b60405180910390f35b6102e8610bd3565b6040516102f591906129f9565b60405180910390f35b610306610bf9565b6040516103139190612736565b60405180910390f35b61033660048036038101906103319190612a7a565b610bff565b005b610340610e91565b60405161034d9190612736565b60405180910390f35b610370600480360381019061036b9190612ae3565b610e9e565b60405161037f93929190612b8f565b60405180910390f35b6103a2600480360381019061039d9190612bef565b610f60565b005b6103ac6111b0565b6040516103be96959493929190612ca2565b60405180910390f35b6103e160048036038101906103dc9190612d67565b6112f7565b005b6103fd60048036038101906103f89190612a7a565b61152f565b60405161040a91906124dd565b60405180910390f35b61042d60048036038101906104289190612db4565b61198b565b005b610437611ade565b005b610441611c41565b60405161044e9190612dfd565b60405180910390f35b610471600480360381019061046c9190612812565b611c47565b005b61048d600480360381019061048891906127af565b611d19565b60405161049a91906124dd565b60405180910390f35b6104ab611d39565b6040516104b89190612e6d565b60405180910390f35b6104db60048036038101906104d69190612ee5565b611dc7565b005b6104f760048036038101906104f291906127af565b611ea4565b60405161050491906124dd565b60405180910390f35b61052760048036038101906105229190612f32565b611ec4565b005b610543600480360381019061053e91906127af565b6121fc565b60405161055091906124dd565b60405180910390f35b61056161221c565b60405161056e91906129f9565b60405180910390f35b610591600480360381019061058c91906127af565b612240565b005b601060149054906101000a900460ff1681565b60008054906101000a900473ffffffffffffffffffffffffffffffffffffffff1673ffffffffffffffffffffffffffffffffffffffff163373ffffffffffffffffffffffffffffffffffffffff1614610634576040517f08c379a000000000000000000000000000000000000000000000000000000000815260040161062b90612fcb565b60405180910390fd5b6040518060c001604052808581526020018481526020018381526020018281526020016001600281111561066b5761066a612c1c565b5b81526020016000801b8152506001600082015181600001908161068e91906131f7565b5060208201518160010190816106a491906131f7565b50604082015181600201556060820151816003015560808201518160040160006101000a81548160ff021916908360028111156106e4576106e3612c1c565b5b021790555060a082015181600501559050507f1594903932ed8f9b9f2f2bbc15a18c132591e2c4d3730ba56705aa661662f49c84846040516107279291906132c9565b60405180910390a150505050565b600281565b600c6020528060005260406000206000915090505481565b60008054906101000a900473ffffffffffffffffffffffffffffffffffffffff1673ffffffffffffffffffffffffffffffffffffffff163373ffffffffffffffffffffffffffffffffffffffff16146107e0576040517f08c379a00000000000000000000000000000000000000000000000000000000081526004016107d790612fcb565b60405180910390fd5b6000801b600a5414610827576040517f08c379a000000000000000000000000000000000000000000000000000000000815260040161081e9061334c565b60405180910390fd5b80600a819055507f441c2ef1cd25577b68ad08339ad40de8de2cb75d820352e6ad04872e67fb51cd8160405161085d9190612dfd565b60405180910390a150565b601060009054906101000a900473ffffffffffffffffffffffffffffffffffffffff1673ffffffffffffffffffffffffffffffffffffffff163373ffffffffffffffffffffffffffffffffffffffff16146108f8576040517f08c379a00000000000000000000000000000000000000000000000000000000081526004016108ef906133b8565b60405180910390fd5b818190508484905014610940576040517f08c379a000000000000000000000000000000000000000000000000000000000815260040161093790613424565b60405180910390fd5b60005b848490508110156109d75760018161095b9190613473565b7f3f43c5f7b17d028526089f9ba4ba863ef2a26802b48f4f85012a3ec93d4bbcd986868481811061098f5761098e6134a7565b5b9050604002018585858181106109a8576109a76134a7565b5b9050604002016040516109bc9291906134ef565b60405180910390a280806109cf90613518565b915050610943565b5050505050565b600160028111156109f2576109f1612c1c565b5b600160040160009054906101000a900460ff166002811115610a1757610a16612c1c565b5b14610a57576040517f08c379a0000000000000000000000000000000000000000000000000000000008152600401610a4e906135ac565b60405180910390fd5b60008054906101000a900473ffffffffffffffffffffffffffffffffffffffff1673ffffffffffffffffffffffffffffffffffffffff163373ffffffffffffffffffffffffffffffffffffffff1614610ae5576040517f08c379a0000000000000000000000000000000000000000000000000000000008152600401610adc90612fcb565b60405180910390fd5b6009600085815260200190815260200160002060009054906101000a900460ff1615610b46576040517f08c379a0000000000000000000000000000000000000000000000000000000008152600401610b3d90613618565b60405180910390fd5b60016009600086815260200190815260200160002060006101000a81548160ff02191690831515021790555082847fdecfef833a228bba67aef2aa54c984b21b5713a8e4a58ea1e42db46daf20b8d48484604051610ba5929190613665565b60405180910390a350505050565b60096020528060005260406000206000915054906101000a900460ff1681565b601060009054906101000a900473ffffffffffffffffffffffffffffffffffffffff1681565b600d5481565b600b60003373ffffffffffffffffffffffffffffffffffffffff1673ffffffffffffffffffffffffffffffffffffffff16815260200190815260200160002060009054906101000a900460ff16610c8b576040517f08c379a0000000000000000000000000000000000000000000000000000000008152600401610c82906136d5565b60405180910390fd5b6000610dad856002806020026040519081016040528092919082600260200280828437600081840152601f19601f82011690508083019250505050505085600280602002604051908101604052809291906000905b82821015610d34578382604002016002806020026040519081016040528092919082600260200280828437600081840152601f19601f82011690508083019250505050505081526020019060010190610ce0565b50505050856002806020026040519081016040528092919082600260200280828437600081840152601f19601f820116905080830192505050505050856001806020026040519081016040528092919082600160200280828437600081840152601f19601f820116905080830192505050505050612381565b905080610def576040517f08c379a0000000000000000000000000000000000000000000000000000000008152600401610de690613741565b60405180910390fd5b6001600e60003373ffffffffffffffffffffffffffffffffffffffff1673ffffffffffffffffffffffffffffffffffffffff16815260200190815260200160002060006101000a81548160ff0219169083151502179055503373ffffffffffffffffffffffffffffffffffffffff167f461f94abfffacf370cd3915fe79cceea6ccd2356cae317fbb3f7f3bae81cfea060405160405180910390a25050505050565b6000600780549050905090565b60078181548110610eae57600080fd5b9060005260206000209060030201600091509050806000015490806001018054610ed79061301a565b80601f0160208091040260200160405190810160405280929190818152602001828054610f039061301a565b8015610f505780601f10610f2557610100808354040283529160200191610f50565b820191906000526020600020905b815481529060010190602001808311610f3357829003601f168201915b5050505050908060020154905083565b60008054906101000a900473ffffffffffffffffffffffffffffffffffffffff1673ffffffffffffffffffffffffffffffffffffffff163373ffffffffffffffffffffffffffffffffffffffff1614610fee576040517f08c379a0000000000000000000000000000000000000000000000000000000008152600401610fe590612fcb565b60405180910390fd5b6000600d5414611033576040517f08c379a000000000000000000000000000000000000000000000000000000000815260040161102a906137ad565b60405180910390fd5b60005b60038110156111ac576001600b6000848460038110611058576110576134a7565b5b60200201602081019061106b91906127af565b73ffffffffffffffffffffffffffffffffffffffff1673ffffffffffffffffffffffffffffffffffffffff16815260200190815260200160002060006101000a81548160ff0219169083151502179055506001816110c99190613473565b600c60008484600381106110e0576110df6134a7565b5b6020020160208101906110f391906127af565b73ffffffffffffffffffffffffffffffffffffffff1673ffffffffffffffffffffffffffffffffffffffff16815260200190815260200160002081905550818160038110611144576111436134a7565b5b60200201602081019061115791906127af565b73ffffffffffffffffffffffffffffffffffffffff167f85778b4fc65f26951d8cf0de370d55669440118927711dbc86de5ab3904def3160405160405180910390a280806111a490613518565b915050611036565b5050565b60018060000180546111c19061301a565b80601f01602080910402602001604051908101604052809291908181526020018280546111ed9061301a565b801561123a5780601f1061120f5761010080835404028352916020019161123a565b820191906000526020600020905b81548152906001019060200180831161121d57829003601f168201915b50505050509080600101805461124f9061301a565b80601f016020809104026020016040519081016040528092919081815260200182805461127b9061301a565b80156112c85780601f1061129d576101008083540402835291602001916112c8565b820191906000526020600020905b8154815290600101906020018083116112ab57829003601f168201915b5050505050908060020154908060030154908060040160009054906101000a900460ff16908060050154905086565b60008054906101000a900473ffffffffffffffffffffffffffffffffffffffff1673ffffffffffffffffffffffffffffffffffffffff163373ffffffffffffffffffffffffffffffffffffffff1614611385576040517f08c379a000000000000000000000000000000000000000000000000000000000815260040161137c90612fcb565b60405180910390fd5b6002600d5410156113cb576040517f08c379a00000000000000000000000000000000000000000000000000000000081526004016113c290613819565b60405180910390fd5b6007805490508282905014611415576040517f08c379a000000000000000000000000000000000000000000000000000000000815260040161140c90613424565b60405180910390fd5b60005b828290508110156114d657828282818110611436576114356134a7565b5b9050602002013560078281548110611451576114506134a7565b5b9060005260206000209060030201600201819055506001816114739190613473565b7f158d444bea0bdeff7636655b6fde6c8d823210b75d5fd14f3305db9805249f518484848181106114a7576114a66134a7565b5b905060200201356040516114bb9190612736565b60405180910390a280806114ce90613518565b915050611418565b506001601060146101000a81548160ff0219169083151502179055507f96aa0edbdc5e8d8b0146e84e633e270c48660d5e38be3ec9f0889bd6c617b3c882826040516115239291906138ab565b60405180910390a15050565b600061195c565b7f30644e72e131a029b85045b68181585d2833e84879b9709143e1f593f00000018110611567576000805260206000f35b50565b600060405183815284602082015285604082015260408160608360076107d05a03fa91508161159d576000805260206000f35b825160408201526020830151606082015260408360808360066107d05a03fa9150816115cd576000805260206000f35b505050505050565b600060808601600087017f2d2bbd05032830e38fbe5b92d97d5308b19d59e04f5a9e3e0b12bfe5781cc41481527f0b6b27a36c650fe495f8e8a74b606e629fbb57ca954fe920cf9793f093fed3f6602082015261167860008801357f1edd51c662e1c077b99b381d14dbf3a0e0883bd1365f716f15a7fde476d6e1357f0612ebacc2a0f75422c59901603b7063c5862071cb50f9361dbf16b239f9b8378461156a565b833582527f30644e72e131a029b85045b68181585d97816a916871ca8d3c208c16d87cfd4760208501357f30644e72e131a029b85045b68181585d97816a916871ca8d3c208c16d87cfd4703066020830152843560408301526020850135606083015260408501356080830152606085013560a08301527f0fa97dbe05c01604f78e309ff166a3d1ca5a169ad7e4c273978b2d12951b3aa860c08301527f1ce3d36ac75c22ca880a3589453dd56d74ebcd3dc0d02bbd68b34d5d7950ca2960e08301527f08854137860062e4ae212836201a5afcfe3f37123650b07b4ccbbe81528d77b16101008301527f061483df5d4504f9f4c4d0db42fc7ff28dca2e621cedbddef0fc1517ba3608686101208301527f234436eb026880fecd883256f20c9bf04145e8d2851134db03fb0750a0eaae3a6101408301527f0477051796d060fccce2dcb65437ad24c044e0ead79119f3eb26f1ac3ce97b7b610160830152600088015161018083015260206000018801516101a08301527f198e9393920d483a7260bfb731fb5d25f1aa493335a9e71297e485b7aef312c26101c08301527f1800deef121f1e76426a00665e5c4479674322d4f75edadd46debd5cd992f6ed6101e08301527f090689d0585ff075ec9e99ad690c3395bc4b313370b38ef355acdadcd122975b6102008301527f12c85ea5db8c6deb4aab71808dcb408fe3d1e7690c43d37b4ce6cc0166fa7daa610220830152853561024083015260208601356102608301527f11b70afe292036f46afdd2ed0e5460269895b1745f46129dba1a192d0f8c98d66102808301527f1d2f1487d4f5637828c5c3f9cb1e442d8919717d2bdadb0d5227bc674d0bd9946102a08301527f2fdc23fa012af4b59310186e90e9ec25a45dd106abbbe8186eb64e1ea31cd37e6102c08301527f03de8f7371c347c713ff13cce3367e69495f61621de0d126e3b9f9dbf1a998e86102e08301526020826103008460086107d05a03fa82518116935050505095945050505050565b60405161038081016040526119746000840135611536565b611981818486888a6115d5565b8060005260206000f35b60008054906101000a900473ffffffffffffffffffffffffffffffffffffffff1673ffffffffffffffffffffffffffffffffffffffff163373ffffffffffffffffffffffffffffffffffffffff1614611a19576040517f08c379a0000000000000000000000000000000000000000000000000000000008152600401611a1090612fcb565b60405180910390fd5b600760405180606001604052806001600780549050611a389190613473565b815260200183815260200160008152509080600181540180825580915050600190039060005260206000209060030201600090919091909150600082015181600001556020820151816001019081611a9091906131f7565b506040820151816002015550507fe83b2a43e7e82d975c8a0a6d2f045153c869e111136a34d1889ab7b598e396a360078054905082604051611ad39291906138cf565b60405180910390a150565b60008054906101000a900473ffffffffffffffffffffffffffffffffffffffff1673ffffffffffffffffffffffffffffffffffffffff163373ffffffffffffffffffffffffffffffffffffffff1614611b6c576040517f08c379a0000000000000000000000000000000000000000000000000000000008152600401611b6390612fcb565b60405180910390fd5b60016002811115611b8057611b7f612c1c565b5b600160040160009054906101000a900460ff166002811115611ba557611ba4612c1c565b5b14611be5576040517f08c379a0000000000000000000000000000000000000000000000000000000008152600401611bdc9061394b565b60405180910390fd5b6002600160040160006101000a81548160ff02191690836002811115611c0e57611c0d612c1c565b5b02179055507f66ec723071e4bb646f7b35d31bc2dee8510979bd8c180edd0690d4f5e802f1e460405160405180910390a1565b600a5481565b60008054906101000a900473ffffffffffffffffffffffffffffffffffffffff1673ffffffffffffffffffffffffffffffffffffffff163373ffffffffffffffffffffffffffffffffffffffff1614611cd5576040517f08c379a0000000000000000000000000000000000000000000000000000000008152600401611ccc90612fcb565b60405180910390fd5b806001600501819055507f90004c04698bc3322499a575ed3752dd4abf33e0a7294c06a787a0fe01bea94181604051611d0e9190612dfd565b60405180910390a150565b600f6020528060005260406000206000915054906101000a900460ff1681565b60088054611d469061301a565b80601f0160208091040260200160405190810160405280929190818152602001828054611d729061301a565b8015611dbf5780601f10611d9457610100808354040283529160200191611dbf565b820191906000526020600020905b815481529060010190602001808311611da257829003601f168201915b505050505081565b60008054906101000a900473ffffffffffffffffffffffffffffffffffffffff1673ffffffffffffffffffffffffffffffffffffffff163373ffffffffffffffffffffffffffffffffffffffff1614611e55576040517f08c379a0000000000000000000000000000000000000000000000000000000008152600401611e4c90612fcb565b60405180910390fd5b818160089182611e669291906139d1565b507fcbe11c4a798e6399d2bdc5014d77dd62a510f9a2d3e8d17fa579793168e7b2198282604051611e98929190613ace565b60405180910390a15050565b600b6020528060005260406000206000915054906101000a900460ff1681565b600b60003373ffffffffffffffffffffffffffffffffffffffff1673ffffffffffffffffffffffffffffffffffffffff16815260200190815260200160002060009054906101000a900460ff16611f50576040517f08c379a0000000000000000000000000000000000000000000000000000000008152600401611f47906136d5565b60405180910390fd5b600e60003373ffffffffffffffffffffffffffffffffffffffff1673ffffffffffffffffffffffffffffffffffffffff16815260200190815260200160002060009054906101000a900460ff16611fdc576040517f08c379a0000000000000000000000000000000000000000000000000000000008152600401611fd390613b3e565b60405180910390fd5b600f60003373ffffffffffffffffffffffffffffffffffffffff1673ffffffffffffffffffffffffffffffffffffffff16815260200190815260200160002060009054906101000a900460ff1615612069576040517f08c379a00000000000000000000000000000000000000000000000000000000081526004016120609061334c565b60405180910390fd5b600082829050116120af576040517f08c379a00000000000000000000000000000000000000000000000000000000081526004016120a690613baa565b60405180910390fd5b6001600f60003373ffffffffffffffffffffffffffffffffffffffff1673ffffffffffffffffffffffffffffffffffffffff16815260200190815260200160002060006101000a81548160ff0219169083151502179055506000600e60003373ffffffffffffffffffffffffffffffffffffffff1673ffffffffffffffffffffffffffffffffffffffff16815260200190815260200160002060006101000a81548160ff021916908315150217905550600d600081548092919060010191905055503373ffffffffffffffffffffffffffffffffffffffff167f84ed87109962c02c163a4cb962b99e44550d6d3e65b0539743f436be6f38a41b83836040516121b9929190613c82565b60405180910390a26002600d54106121f8577fb5c83c1854b3926d397eff3a576d47f9d1ef613af9b5d8e34fb1f6641428230660405160405180910390a15b5050565b600e6020528060005260406000206000915054906101000a900460ff1681565b60008054906101000a900473ffffffffffffffffffffffffffffffffffffffff1681565b60008054906101000a900473ffffffffffffffffffffffffffffffffffffffff1673ffffffffffffffffffffffffffffffffffffffff163373ffffffffffffffffffffffffffffffffffffffff16146122ce576040517f08c379a00000000000000000000000000000000000000000000000000000000081526004016122c590612fcb565b60405180910390fd5b600073ffffffffffffffffffffffffffffffffffffffff168173ffffffffffffffffffffffffffffffffffffffff160361233d576040517f08c379a000000000000000000000000000000000000000000000000000000000815260040161233490613cf2565b60405180910390fd5b80601060006101000a81548173ffffffffffffffffffffffffffffffffffffffff021916908373ffffffffffffffffffffffffffffffffffffffff16021790555050565b60008060003073ffffffffffffffffffffffffffffffffffffffff16878787876040516024016123b49493929190613f3f565b6040516020818303038152906040527f43753b4d000000000000000000000000000000000000000000000000000000007bffffffffffffffffffffffffffffffffffffffffffffffffffffffff19166020820180517bffffffffffffffffffffffffffffffffffffffffffffffffffffffff838183161783525050505060405161243e9190613fc2565b600060405180830381855afa9150503d8060008114612479576040519150601f19603f3d011682016040523d82523d6000602084013e61247e565b606091505b5091509150811580612491575060208151105b156124a1576000925050506124ba565b808060200190518101906124b59190614005565b925050505b949350505050565b60008115159050919050565b6124d7816124c2565b82525050565b60006020820190506124f260008301846124ce565b92915050565b6000604051905090565b600080fd5b600080fd5b600080fd5b600080fd5b6000601f19601f8301169050919050565b7f4e487b7100000000000000000000000000000000000000000000000000000000600052604160045260246000fd5b61255f82612516565b810181811067ffffffffffffffff8211171561257e5761257d612527565b5b80604052505050565b60006125916124f8565b905061259d8282612556565b919050565b600067ffffffffffffffff8211156125bd576125bc612527565b5b6125c682612516565b9050602081019050919050565b82818337600083830152505050565b60006125f56125f0846125a2565b612587565b90508281526020810184848401111561261157612610612511565b5b61261c8482856125d3565b509392505050565b600082601f8301126126395761263861250c565b5b81356126498482602086016125e2565b91505092915050565b6000819050919050565b61266581612652565b811461267057600080fd5b50565b6000813590506126828161265c565b92915050565b600080600080608085870312156126a2576126a1612502565b5b600085013567ffffffffffffffff8111156126c0576126bf612507565b5b6126cc87828801612624565b945050602085013567ffffffffffffffff8111156126ed576126ec612507565b5b6126f987828801612624565b935050604061270a87828801612673565b925050606061271b87828801612673565b91505092959194509250565b61273081612652565b82525050565b600060208201905061274b6000830184612727565b92915050565b600073ffffffffffffffffffffffffffffffffffffffff82169050919050565b600061277c82612751565b9050919050565b61278c81612771565b811461279757600080fd5b50565b6000813590506127a981612783565b92915050565b6000602082840312156127c5576127c4612502565b5b60006127d38482850161279a565b91505092915050565b6000819050919050565b6127ef816127dc565b81146127fa57600080fd5b50565b60008135905061280c816127e6565b92915050565b60006020828403121561282857612827612502565b5b6000612836848285016127fd565b91505092915050565b600080fd5b600080fd5b60008083601f84011261285f5761285e61250c565b5b8235905067ffffffffffffffff81111561287c5761287b61283f565b5b60208301915083604082028301111561289857612897612844565b5b9250929050565b600080600080604085870312156128b9576128b8612502565b5b600085013567ffffffffffffffff8111156128d7576128d6612507565b5b6128e387828801612849565b9450945050602085013567ffffffffffffffff81111561290657612905612507565b5b61291287828801612849565b925092505092959194509250565b60008083601f8401126129365761293561250c565b5b8235905067ffffffffffffffff8111156129535761295261283f565b5b60208301915083600182028301111561296f5761296e612844565b5b9250929050565b600080600080606085870312156129905761298f612502565b5b600061299e878288016127fd565b94505060206129af878288016127fd565b935050604085013567ffffffffffffffff8111156129d0576129cf612507565b5b6129dc87828801612920565b925092505092959194509250565b6129f381612771565b82525050565b6000602082019050612a0e60008301846129ea565b92915050565b600081905082602060020282011115612a3057612a2f612844565b5b92915050565b600081905082604060020282011115612a5257612a51612844565b5b92915050565b600081905082602060010282011115612a7457612a73612844565b5b92915050565b6000806000806101208587031215612a9557612a94612502565b5b6000612aa387828801612a14565b9450506040612ab487828801612a36565b93505060c0612ac587828801612a14565b925050610100612ad787828801612a58565b91505092959194509250565b600060208284031215612af957612af8612502565b5b6000612b0784828501612673565b91505092915050565b600081519050919050565b600082825260208201905092915050565b60005b83811015612b4a578082015181840152602081019050612b2f565b60008484015250505050565b6000612b6182612b10565b612b6b8185612b1b565b9350612b7b818560208601612b2c565b612b8481612516565b840191505092915050565b6000606082019050612ba46000830186612727565b8181036020830152612bb68185612b56565b9050612bc56040830184612727565b949350505050565b600081905082602060030282011115612be957612be8612844565b5b92915050565b600060608284031215612c0557612c04612502565b5b6000612c1384828501612bcd565b91505092915050565b7f4e487b7100000000000000000000000000000000000000000000000000000000600052602160045260246000fd5b60038110612c5c57612c5b612c1c565b5b50565b6000819050612c6d82612c4b565b919050565b6000612c7d82612c5f565b9050919050565b612c8d81612c72565b82525050565b612c9c816127dc565b82525050565b600060c0820190508181036000830152612cbc8189612b56565b90508181036020830152612cd08188612b56565b9050612cdf6040830187612727565b612cec6060830186612727565b612cf96080830185612c84565b612d0660a0830184612c93565b979650505050505050565b60008083601f840112612d2757612d2661250c565b5b8235905067ffffffffffffffff811115612d4457612d4361283f565b5b602083019150836020820283011115612d6057612d5f612844565b5b9250929050565b60008060208385031215612d7e57612d7d612502565b5b600083013567ffffffffffffffff811115612d9c57612d9b612507565b5b612da885828601612d11565b92509250509250929050565b600060208284031215612dca57612dc9612502565b5b600082013567ffffffffffffffff811115612de857612de7612507565b5b612df484828501612624565b91505092915050565b6000602082019050612e126000830184612c93565b92915050565b600081519050919050565b600082825260208201905092915050565b6000612e3f82612e18565b612e498185612e23565b9350612e59818560208601612b2c565b612e6281612516565b840191505092915050565b60006020820190508181036000830152612e878184612e34565b905092915050565b60008083601f840112612ea557612ea461250c565b5b8235905067ffffffffffffffff811115612ec257612ec161283f565b5b602083019150836001820283011115612ede57612edd612844565b5b9250929050565b60008060208385031215612efc57612efb612502565b5b600083013567ffffffffffffffff811115612f1a57612f19612507565b5b612f2685828601612e8f565b92509250509250929050565b60008060208385031215612f4957612f48612502565b5b600083013567ffffffffffffffff811115612f6757612f66612507565b5b612f7385828601612849565b92509250509250929050565b7f4e6f7420617574686f72697a6564000000000000000000000000000000000000600082015250565b6000612fb5600e83612b1b565b9150612fc082612f7f565b602082019050919050565b60006020820190508181036000830152612fe481612fa8565b9050919050565b7f4e487b7100000000000000000000000000000000000000000000000000000000600052602260045260246000fd5b6000600282049050600182168061303257607f821691505b60208210810361304557613044612feb565b5b50919050565b60008190508160005260206000209050919050565b60006020601f8301049050919050565b600082821b905092915050565b6000600883026130ad7fffffffffffffffffffffffffffffffffffffffffffffffffffffffffffffffff82613070565b6130b78683613070565b95508019841693508086168417925050509392505050565b6000819050919050565b60006130f46130ef6130ea84612652565b6130cf565b612652565b9050919050565b6000819050919050565b61310e836130d9565b61312261311a826130fb565b84845461307d565b825550505050565b600090565b61313761312a565b613142818484613105565b505050565b5b818110156131665761315b60008261312f565b600181019050613148565b5050565b601f8211156131ab5761317c8161304b565b61318584613060565b81016020851015613194578190505b6131a86131a085613060565b830182613147565b50505b505050565b600082821c905092915050565b60006131ce600019846008026131b0565b1980831691505092915050565b60006131e783836131bd565b9150826002028217905092915050565b61320082612b10565b67ffffffffffffffff81111561321957613218612527565b5b613223825461301a565b61322e82828561316a565b600060209050601f831160018114613261576000841561324f578287015190505b61325985826131db565b8655506132c1565b601f19841661326f8661304b565b60005b8281101561329757848901518255600182019150602085019450602081019050613272565b868310156132b457848901516132b0601f8916826131bd565b8355505b6001600288020188555050505b505050505050565b600060408201905081810360008301526132e38185612b56565b905081810360208301526132f78184612b56565b90509392505050565b7f416c7265616479207075626c6973686564000000000000000000000000000000600082015250565b6000613336601183612b1b565b915061334182613300565b602082019050919050565b6000602082019050818103600083015261336581613329565b9050919050565b7f4e6f7420617574686f72697a6564202861676772656761746f72206f6e6c7929600082015250565b60006133a2602083612b1b565b91506133ad8261336c565b602082019050919050565b600060208201905081810360008301526133d181613395565b9050919050565b7f4c656e677468206d69736d617463680000000000000000000000000000000000600082015250565b600061340e600f83612b1b565b9150613419826133d8565b602082019050919050565b6000602082019050818103600083015261343d81613401565b9050919050565b7f4e487b7100000000000000000000000000000000000000000000000000000000600052601160045260246000fd5b600061347e82612652565b915061348983612652565b92508282019050808211156134a1576134a0613444565b5b92915050565b7f4e487b7100000000000000000000000000000000000000000000000000000000600052603260045260246000fd5b82818337505050565b6134eb604083836134d6565b5050565b600060808201905061350460008301856134df565b61351160408301846134df565b9392505050565b600061352382612652565b91507fffffffffffffffffffffffffffffffffffffffffffffffffffffffffffffffff820361355557613554613444565b5b600182019050919050565b7f456c656374696f6e206e6f742061637469766500000000000000000000000000600082015250565b6000613596601383612b1b565b91506135a182613560565b602082019050919050565b600060208201905081810360008301526135c581613589565b9050919050565b7f446f75626c6520766f7465206465746563746564000000000000000000000000600082015250565b6000613602601483612b1b565b915061360d826135cc565b602082019050919050565b60006020820190508181036000830152613631816135f5565b9050919050565b60006136448385612b1b565b93506136518385846125d3565b61365a83612516565b840190509392505050565b60006020820190508181036000830152613680818486613638565b90509392505050565b7f4e6f742074727573746565000000000000000000000000000000000000000000600082015250565b60006136bf600b83612b1b565b91506136ca82613689565b602082019050919050565b600060208201905081810360008301526136ee816136b2565b9050919050565b7f496e76616c6964205a4b2050726f6f6600000000000000000000000000000000600082015250565b600061372b601083612b1b565b9150613736826136f5565b602082019050919050565b6000602082019050818103600083015261375a8161371e565b9050919050565b7f416c726561647920696e697469616c697a656400000000000000000000000000600082015250565b6000613797601383612b1b565b91506137a282613761565b602082019050919050565b600060208201905081810360008301526137c68161378a565b9050919050565b7f4e6f7420656e6f756768207061727469616c2064656372797074696f6e730000600082015250565b6000613803601e83612b1b565b915061380e826137cd565b602082019050919050565b60006020820190508181036000830152613832816137f6565b9050919050565b600082825260208201905092915050565b600080fd5b600061385b8385613839565b93507f07ffffffffffffffffffffffffffffffffffffffffffffffffffffffffffffff83111561388e5761388d61384a565b5b60208302925061389f8385846134d6565b82840190509392505050565b600060208201905081810360008301526138c681848661384f565b90509392505050565b60006040820190506138e46000830185612727565b81810360208301526138f68184612b56565b90509392505050565b7f4e6f742061637469766500000000000000000000000000000000000000000000600082015250565b6000613935600a83612b1b565b9150613940826138ff565b602082019050919050565b6000602082019050818103600083015261396481613928565b9050919050565b600082905092915050565b60008190508160005260206000209050919050565b601f8211156139cc5761399d81613976565b6139a684613060565b810160208510156139b5578190505b6139c96139c185613060565b830182613147565b50505b505050565b6139db838361396b565b67ffffffffffffffff8111156139f4576139f3612527565b5b6139fe825461301a565b613a0982828561398b565b6000601f831160018114613a385760008415613a26578287013590505b613a3085826131db565b865550613a98565b601f198416613a4686613976565b60005b82811015613a6e57848901358255600182019150602085019450602081019050613a49565b86831015613a8b5784890135613a87601f8916826131bd565b8355505b6001600288020188555050505b50505050505050565b6000613aad8385612e23565b9350613aba8385846125d3565b613ac383612516565b840190509392505050565b60006020820190508181036000830152613ae9818486613aa1565b90509392505050565b7f50726f6f66206e6f742076657269666965640000000000000000000000000000600082015250565b6000613b28601283612b1b565b9150613b3382613af2565b602082019050919050565b60006020820190508181036000830152613b5781613b1b565b9050919050565b7f456d70747920445f706f696e7473000000000000000000000000000000000000600082015250565b6000613b94600e83612b1b565b9150613b9f82613b5e565b602082019050919050565b60006020820190508181036000830152613bc381613b87565b9050919050565b600082825260208201905092915050565b6000819050919050565b613bf1604083836134d6565b5050565b6000613c018383613be5565b60408301905092915050565b600082905092915050565b6000604082019050919050565b6000613c318385613bca565b9350613c3c82613bdb565b8060005b85811015613c7557613c528284613c0d565b613c5c8882613bf5565b9750613c6783613c18565b925050600181019050613c40565b5085925050509392505050565b60006020820190508181036000830152613c9d818486613c25565b90509392505050565b7f696e76616c69642061676772656761746f720000000000000000000000000000600082015250565b6000613cdc601283612b1b565b9150613ce782613ca6565b602082019050919050565b60006020820190508181036000830152613d0b81613ccf565b9050919050565b600060029050919050565b600081905092915050565b6000819050919050565b613d3b81612652565b82525050565b6000613d4d8383613d32565b60208301905092915050565b6000602082019050919050565b613d6f81613d12565b613d798184613d1d565b9250613d8482613d28565b8060005b83811015613db5578151613d9c8782613d41565b9650613da783613d59565b925050600181019050613d88565b505050505050565b600060029050919050565b600081905092915050565b6000819050919050565b600081905092915050565b613df181613d12565b613dfb8184613ddd565b9250613e0682613d28565b8060005b83811015613e37578151613e1e8782613d41565b9650613e2983613d59565b925050600181019050613e0a565b505050505050565b6000613e4b8383613de8565b60408301905092915050565b6000602082019050919050565b613e6d81613dbd565b613e778184613dc8565b9250613e8282613dd3565b8060005b83811015613eb3578151613e9a8782613e3f565b9650613ea583613e57565b925050600181019050613e86565b505050505050565b600060019050919050565b600081905092915050565b6000819050919050565b6000602082019050919050565b613ef181613ebb565b613efb8184613ec6565b9250613f0682613ed1565b8060005b83811015613f37578151613f1e8782613d41565b9650613f2983613edb565b925050600181019050613f0a565b505050505050565b600061012082019050613f556000830187613d66565b613f626040830186613e64565b613f6f60c0830185613d66565b613f7d610100830184613ee8565b95945050505050565b600081905092915050565b6000613f9c82612e18565b613fa68185613f86565b9350613fb6818560208601612b2c565b80840191505092915050565b6000613fce8284613f91565b915081905092915050565b613fe2816124c2565b8114613fed57600080fd5b50565b600081519050613fff81613fd9565b92915050565b60006020828403121561401b5761401a612502565b5b600061402984828501613ff0565b9150509291505056fea264697066735822122083797655632cf1e6027bce20210f6f22e16b50b0ba1bc177d0fb795849c0e0a364736f6c63430008140033",
  "linkReferences": {},
  "deployedLinkReferences": {}
}