{
  "_format": "hh-sol-artifact-1",
  "contractName": "VoteProofCombinedVerifier",
  "sourceName": "contracts/VoteProofCombinedVerifier.sol",
  "abi": [
    {
      "inputs": [
        {
          "internalType": "uint256[2]",
          "name": "_pA",
          "type": "uint256[2]"
        },
        {
          "internalType": "uint256[2][2]",
          "name": "_pB",
          "type": "uint256[2][2]"
        },
        {
          "internalType": "uint256[2]",
          "name": "_pC",
          "type": "uint256[2]"
        },
        {
          "internalType": "uint256[2]",
          "name": "_pubSignals",
          "type": "uint256[2]"
        }
      ],
      "name": "verifyProof",
      "outputs": [
        {
          "internalType": "bool",
          "name": "",
          "type": "bool"
        }
      ],
      "stateMutability": "view",
      "type": "function"
    }
  ],
  "bytecode": "0x608060405234801561001057600080fd5b5061063c806100206000396000f3fe608060405234801561001057600080fd5b506004361061002b5760003560e01c8063f5c9d69e14610030575b600080fd5b61004a60048036038101906100459190610567565b610060565b60405161005791906105eb565b60405180910390f35b60006104dd565b7f30644e72e131a029b85045b68181585d2833e84879b9709143e1f593f00000018110610098576000805260206000f35b50565b600060405183815284602082015285604082015260408160608360076107d05a03fa9150816100ce576000805260206000f35b825160408201526020830151606082015260408360808360066107d05a03fa9150816100fe576000805260206000f35b505050505050565b600060808601600087017f0121513b7cbfe61252b8083b4d7db173b17f4fc8458a0edd94c5b605dd218e4381527f2ef52617645d688d3bb6662767a1ebbe16f588cfb5357ba6f131044a5c4bc03a60208201526101a960008801357f1a955b3051a8bf34a45b65af9099c9c47a22a032953b2a09eead89a421c5766e7f0aabf2c8803d8f8e94726dd862496a694183dbc82250e107bdfb43b03ebc7c5f8461009b565b6101f960208801357f19988e4a362d8bc9334a69c6838bb293fcb976dd170fdad51266a3cc28d4249c7f0c7316db75648f842db65cc9faea62745888c436fdda2c1ce2ec26eb3365da6d8461009b565b833582527f30644e72e131a029b85045b68181585d97816a916871ca8d3c208c16d87cfd4760208501357f30644e72e131a029b85045b68181585d97816a916871ca8d3c208c16d87cfd4703066020830152843560408301526020850135606083015260408501356080830152606085013560a08301527f0fa97dbe05c01604f78e309ff166a3d1ca5a169ad7e4c273978b2d12951b3aa860c08301527f1ce3d36ac75c22ca880a3589453dd56d74ebcd3dc0d02bbd68b34d5d7950ca2960e08301527f08854137860062e4ae212836201a5afcfe3f37123650b07b4ccbbe81528d77b16101008301527f061483df5d4504f9f4c4d0db42fc7ff28dca2e621cedbddef0fc1517ba3608686101208301527f234436eb026880fecd883256f20c9bf04145e8d2851134db03fb0750a0eaae3a6101408301527f0477051796d060fccce2dcb65437ad24c044e0ead79119f3eb26f1ac3ce97b7b610160830152600088015161018083015260206000018801516101a08301527f198e9393920d483a7260bfb731fb5d25f1aa493335a9e71297e485b7aef312c26101c08301527f1800deef121f1e76426a00665e5c4479674322d4f75edadd46debd5cd992f6ed6101e08301527f090689d0585ff075ec9e99ad690c3395bc4b313370b38ef355acdadcd122975b6102008301527f12c85ea5db8c6deb4aab71808dcb408fe3d1e7690c43d37b4ce6cc0166fa7daa610220830152853561024083015260208601356102608301527f010c37af1a9e0e0aacb46a6b2b9e0c931a132c13affbc869cdc092097b17ff2c6102808301527f1e54f3c07a3680ce2ec7938c662c774d1a4ec0b5c9b94af21a3966b3feec656f6102a08301527f2d0be83e870c7882e092c3ce3f2b43fdc268f03a58df5c18b3de7db013102b2a6102c08301527f21197caef1296722e5954055fb34668d60481a11d2b985c34d116f5020823d836102e08301526020826103008460086107d05a03fa82518116935050505095945050505050565b60405161038081016040526104f56000840135610067565b6105026020840135610067565b61050f818486888a610106565b8060005260206000f35b600080fd5b600080fd5b60008190508260206002028201111561053f5761053e61051e565b5b92915050565b6000819050826040600202820111156105615761056061051e565b5b92915050565b600080600080610140858703121561058257610581610519565b5b600061059087828801610523565b94505060406105a187828801610545565b93505060c06105b287828801610523565b9250506101006105c487828801610523565b91505092959194509250565b60008115159050919050565b6105e5816105d0565b82525050565b600060208201905061060060008301846105dc565b9291505056fea26469706673582212207c654060ab13d76d90d25789386f8f62f546c95457c724c8656b072fdb26671d64736f6c63430008140033",
  "linkReferences": {},
  "deployedLinkReferences": {}
}